{
  "contracts/rollup.sol": {
    "OptimisticRollup": {
      "abi": [
        {
          "inputs": [],
          "stateMutability": "nonpayable",
          "type": "constructor"
        },
        {
          "anonymous": false,
          "inputs": [
            {
              "indexed": false,
              "internalType": "uint256",
              "name": "blockNumber",
              "type": "uint256"
            },
            {
              "indexed": false,
              "internalType": "address",
              "name": "challenger",
              "type": "address"
            }
          ],
          "name": "BlockChallenged",
          "type": "event"
        },
        {
          "anonymous": false,
          "inputs": [
            {
              "indexed": false,
              "internalType": "uint256",
              "name": "blockNumber",
              "type": "uint256"
            },
            {
              "indexed": false,
              "internalType": "bytes32",
              "name": "stateRoot",
              "type": "bytes32"
            },
            {
              "indexed": false,
              "internalType": "bytes",
              "name": "data",
              "type": "bytes"
            },
            {
              "indexed": false,
              "internalType": "uint256",
              "name": "timestamp",
              "type": "uint256"
            }
          ],
          "name": "BlockSubmitted",
          "type": "event"
        },
        {
          "inputs": [],
          "name": "CHALLENGE_PERIOD",
          "outputs": [
            {
              "internalType": "uint256",
              "name": "",
              "type": "uint256"
            }
          ],
          "stateMutability": "view",
          "type": "function"
        },
        {
          "inputs": [
            {
              "internalType": "address",
              "name": "",
              "type": "address"
            }
          ],
          "name": "balances",
          "outputs": [
            {
              "internalType": "uint256",
              "name": "",
              "type": "uint256"
            }
          ],
          "stateMutability": "view",
          "type": "function"
        },
        {
          "inputs": [
            {
              "internalType": "uint256",
              "name": "",
              "type": "uint256"
            }
          ],
          "name": "blocks",
          "outputs": [
            {
              "internalType": "uint256",
              "name": "blockNumber",
              "type": "uint256"
            },
            {
              "internalType": "bytes32",
              "name": "previousBlockHash",
              "type": "bytes32"
            },
            {
              "internalType": "bytes32",
              "name": "stateRoot",
              "type": "bytes32"
            },
            {
              "internalType": "bytes",
              "name": "data",
              "type": "bytes"
            },
            {
              "internalType": "uint256",
              "name": "timestamp",
              "type": "uint256"
            }
          ],
          "stateMutability": "view",
          "type": "function"
        },
        {
          "inputs": [
            {
              "internalType": "address",
              "name": "account",
              "type": "address"
            }
          ],
          "name": "getBalance",
          "outputs": [
            {
              "internalType": "uint256",
              "name": "",
              "type": "uint256"
            }
          ],
          "stateMutability": "view",
          "type": "function"
        },
        {
          "inputs": [
            {
              "internalType": "uint256",
              "name": "blockNumber",
              "type": "uint256"
            }
          ],
          "name": "getBlock",
          "outputs": [
            {
              "components": [
                {
                  "internalType": "uint256",
                  "name": "blockNumber",
                  "type": "uint256"
                },
                {
                  "internalType": "bytes32",
                  "name": "previousBlockHash",
                  "type": "bytes32"
                },
                {
                  "internalType": "bytes32",
                  "name": "stateRoot",
                  "type": "bytes32"
                },
                {
                  "internalType": "bytes",
                  "name": "data",
                  "type": "bytes"
                },
                {
                  "internalType": "uint256",
                  "name": "timestamp",
                  "type": "uint256"
                }
              ],
              "internalType": "struct OptimisticRollup.RollupBlock",
              "name": "",
              "type": "tuple"
            }
          ],
          "stateMutability": "view",
          "type": "function"
        },
        {
          "inputs": [],
          "name": "getBlockCount",
          "outputs": [
            {
              "internalType": "uint256",
              "name": "",
              "type": "uint256"
            }
          ],
          "stateMutability": "view",
          "type": "function"
        },
        {
          "inputs": [
            {
              "internalType": "uint256",
              "name": "",
              "type": "uint256"
            }
          ],
          "name": "isChallenged",
          "outputs": [
            {
              "internalType": "bool",
              "name": "",
              "type": "bool"
            }
          ],
          "stateMutability": "view",
          "type": "function"
        },
        {
          "inputs": [
            {
              "internalType": "bytes32",
              "name": "previousBlockHash",
              "type": "bytes32"
            },
            {
              "internalType": "bytes32",
              "name": "stateRoot",
              "type": "bytes32"
            },
            {
              "internalType": "bytes",
              "name": "data",
              "type": "bytes"
            },
            {
              "internalType": "address[]",
              "name": "accounts",
              "type": "address[]"
            },
            {
              "internalType": "uint256[]",
              "name": "newBalances",
              "type": "uint256[]"
            }
          ],
          "name": "submitBlock",
          "outputs": [],
          "stateMutability": "nonpayable",
          "type": "function"
        }
      ],
      "evm": {
        "bytecode": {
          "linkReferences": {},
          "object": "60806040523480156200001157600080fd5b5060007fdeadbeefdeadbeefdeadbeefdeadbeefdeadbeefdeadbeefdeadbeefdeadbeef60001b905060006040518060400160405280600481526020017fdeadbeef00000000000000000000000000000000000000000000000000000000815250905060006040518060a00160405280600081526020016000801b81526020018481526020018381526020014281525090806001815401808255809150506001900390600052602060002090600502016000909190919091506000820151816000015560208201518160010155604082015181600201556060820151816003019081620000ff9190620003ce565b506080820151816004015550507fcb48bdd94365a15068b6d26cd76700047b4c6451fabe79ad099dbace43be11e26000838342604051620001449493929190620005b3565b60405180910390a1505062000607565b600081519050919050565b7f4e487b7100000000000000000000000000000000000000000000000000000000600052604160045260246000fd5b7f4e487b7100000000000000000000000000000000000000000000000000000000600052602260045260246000fd5b60006002820490506001821680620001d657607f821691505b602082108103620001ec57620001eb6200018e565b5b50919050565b60008190508160005260206000209050919050565b60006020601f8301049050919050565b600082821b905092915050565b600060088302620002567fffffffffffffffffffffffffffffffffffffffffffffffffffffffffffffffff8262000217565b62000262868362000217565b95508019841693508086168417925050509392505050565b6000819050919050565b6000819050919050565b6000620002af620002a9620002a3846200027a565b62000284565b6200027a565b9050919050565b6000819050919050565b620002cb836200028e565b620002e3620002da82620002b6565b84845462000224565b825550505050565b600090565b620002fa620002eb565b62000307818484620002c0565b505050565b5b818110156200032f5762000323600082620002f0565b6001810190506200030d565b5050565b601f8211156200037e576200034881620001f2565b620003538462000207565b8101602085101562000363578190505b6200037b620003728562000207565b8301826200030c565b50505b505050565b600082821c905092915050565b6000620003a36000198460080262000383565b1980831691505092915050565b6000620003be838362000390565b9150826002028217905092915050565b620003d98262000154565b67ffffffffffffffff811115620003f557620003f46200015f565b5b620004018254620001bd565b6200040e82828562000333565b600060209050601f83116001811462000446576000841562000431578287015190505b6200043d8582620003b0565b865550620004ad565b601f1984166200045686620001f2565b60005b82811015620004805784890151825560018201915060208501945060208101905062000459565b86831015620004a057848901516200049c601f89168262000390565b8355505b6001600288020188555050505b505050505050565b6000819050919050565b6000620004e0620004da620004d484620004b5565b62000284565b6200027a565b9050919050565b620004f281620004bf565b82525050565b6000819050919050565b6200050d81620004f8565b82525050565b600082825260208201905092915050565b60005b838110156200054457808201518184015260208101905062000527565b60008484015250505050565b6000601f19601f8301169050919050565b60006200056e8262000154565b6200057a818562000513565b93506200058c81856020860162000524565b620005978162000550565b840191505092915050565b620005ad816200027a565b82525050565b6000608082019050620005ca6000830187620004e7565b620005d9602083018662000502565b8181036040830152620005ed818562000561565b9050620005fe6060830184620005a2565b95945050505050565b61117480620006176000396000f3fe608060405234801561001057600080fd5b50600436106100885760003560e01c8063cc0bd62e1161005b578063cc0bd62e1461013b578063ef1a3b5614610159578063f25b3f9914610175578063f8b2cb4f146101a957610088565b806304c075691461008d57806327e235e3146100bd578063baaaeda7146100ed578063c3a079ed1461011d575b600080fd5b6100a760048036038101906100a2919061066c565b6101d9565b6040516100b491906107c7565b60405180910390f35b6100d760048036038101906100d29190610847565b6102cf565b6040516100e49190610883565b60405180910390f35b6101076004803603810190610102919061066c565b6102e7565b60405161011491906108b9565b60405180910390f35b610125610307565b6040516101329190610883565b60405180910390f35b61014361030e565b6040516101509190610883565b60405180910390f35b610173600480360381019061016e9190610bc0565b61031a565b005b61018f600480360381019061018a919061066c565b6104d6565b6040516101a0959493929190610ce8565b60405180910390f35b6101c360048036038101906101be9190610847565b6105a4565b6040516101d09190610883565b60405180910390f35b6101e16105ed565b600082815481106101f5576101f4610d42565b5b90600052602060002090600502016040518060a001604052908160008201548152602001600182015481526020016002820154815260200160038201805461023c90610da0565b80601f016020809104026020016040519081016040528092919081815260200182805461026890610da0565b80156102b55780601f1061028a576101008083540402835291602001916102b5565b820191906000526020600020905b81548152906001019060200180831161029857829003601f168201915b505050505081526020016004820154815250509050919050565b60026020528060005260406000206000915090505481565b60016020528060005260406000206000915054906101000a900460ff1681565b62093a8081565b60008080549050905090565b805182511461035e576040517f08c379a000000000000000000000000000000000000000000000000000000000815260040161035590610e54565b60405180910390fd5b600080805490509050600042905060005b84518110156103fd5783818151811061038b5761038a610d42565b5b6020026020010151600260008784815181106103aa576103a9610d42565b5b602002602001015173ffffffffffffffffffffffffffffffffffffffff1673ffffffffffffffffffffffffffffffffffffffff16815260200190815260200160002081905550808060010191505061036f565b5060006040518060a0016040528084815260200189815260200188815260200187815260200183815250908060018154018082558091505060019003906000526020600020906005020160009091909190915060008201518160000155602082015181600101556040820151816002015560608201518160030190816104839190611020565b506080820151816004015550507fcb48bdd94365a15068b6d26cd76700047b4c6451fabe79ad099dbace43be11e2828787846040516104c594939291906110f2565b60405180910390a150505050505050565b600081815481106104e657600080fd5b906000526020600020906005020160009150905080600001549080600101549080600201549080600301805461051b90610da0565b80601f016020809104026020016040519081016040528092919081815260200182805461054790610da0565b80156105945780601f1061056957610100808354040283529160200191610594565b820191906000526020600020905b81548152906001019060200180831161057757829003601f168201915b5050505050908060040154905085565b6000600260008373ffffffffffffffffffffffffffffffffffffffff1673ffffffffffffffffffffffffffffffffffffffff168152602001908152602001600020549050919050565b6040518060a0016040528060008152602001600080191681526020016000801916815260200160608152602001600081525090565b6000604051905090565b600080fd5b600080fd5b6000819050919050565b61064981610636565b811461065457600080fd5b50565b60008135905061066681610640565b92915050565b6000602082840312156106825761068161062c565b5b600061069084828501610657565b91505092915050565b6106a281610636565b82525050565b6000819050919050565b6106bb816106a8565b82525050565b600081519050919050565b600082825260208201905092915050565b60005b838110156106fb5780820151818401526020810190506106e0565b60008484015250505050565b6000601f19601f8301169050919050565b6000610723826106c1565b61072d81856106cc565b935061073d8185602086016106dd565b61074681610707565b840191505092915050565b600060a0830160008301516107696000860182610699565b50602083015161077c60208601826106b2565b50604083015161078f60408601826106b2565b50606083015184820360608601526107a78282610718565b91505060808301516107bc6080860182610699565b508091505092915050565b600060208201905081810360008301526107e18184610751565b905092915050565b600073ffffffffffffffffffffffffffffffffffffffff82169050919050565b6000610814826107e9565b9050919050565b61082481610809565b811461082f57600080fd5b50565b6000813590506108418161081b565b92915050565b60006020828403121561085d5761085c61062c565b5b600061086b84828501610832565b91505092915050565b61087d81610636565b82525050565b60006020820190506108986000830184610874565b92915050565b60008115159050919050565b6108b38161089e565b82525050565b60006020820190506108ce60008301846108aa565b92915050565b6108dd816106a8565b81146108e857600080fd5b50565b6000813590506108fa816108d4565b92915050565b600080fd5b600080fd5b7f4e487b7100000000000000000000000000000000000000000000000000000000600052604160045260246000fd5b61094282610707565b810181811067ffffffffffffffff821117156109615761096061090a565b5b80604052505050565b6000610974610622565b90506109808282610939565b919050565b600067ffffffffffffffff8211156109a05761099f61090a565b5b6109a982610707565b9050602081019050919050565b82818337600083830152505050565b60006109d86109d384610985565b61096a565b9050828152602081018484840111156109f4576109f3610905565b5b6109ff8482856109b6565b509392505050565b600082601f830112610a1c57610a1b610900565b5b8135610a2c8482602086016109c5565b91505092915050565b600067ffffffffffffffff821115610a5057610a4f61090a565b5b602082029050602081019050919050565b600080fd5b6000610a79610a7484610a35565b61096a565b90508083825260208201905060208402830185811115610a9c57610a9b610a61565b5b835b81811015610ac55780610ab18882610832565b845260208401935050602081019050610a9e565b5050509392505050565b600082601f830112610ae457610ae3610900565b5b8135610af4848260208601610a66565b91505092915050565b600067ffffffffffffffff821115610b1857610b1761090a565b5b602082029050602081019050919050565b6000610b3c610b3784610afd565b61096a565b90508083825260208201905060208402830185811115610b5f57610b5e610a61565b5b835b81811015610b885780610b748882610657565b845260208401935050602081019050610b61565b5050509392505050565b600082601f830112610ba757610ba6610900565b5b8135610bb7848260208601610b29565b91505092915050565b600080600080600060a08688031215610bdc57610bdb61062c565b5b6000610bea888289016108eb565b9550506020610bfb888289016108eb565b945050604086013567ffffffffffffffff811115610c1c57610c1b610631565b5b610c2888828901610a07565b935050606086013567ffffffffffffffff811115610c4957610c48610631565b5b610c5588828901610acf565b925050608086013567ffffffffffffffff811115610c7657610c75610631565b5b610c8288828901610b92565b9150509295509295909350565b610c98816106a8565b82525050565b600082825260208201905092915050565b6000610cba826106c1565b610cc48185610c9e565b9350610cd48185602086016106dd565b610cdd81610707565b840191505092915050565b600060a082019050610cfd6000830188610874565b610d0a6020830187610c8f565b610d176040830186610c8f565b8181036060830152610d298185610caf565b9050610d386080830184610874565b9695505050505050565b7f4e487b7100000000000000000000000000000000000000000000000000000000600052603260045260246000fd5b7f4e487b7100000000000000000000000000000000000000000000000000000000600052602260045260246000fd5b60006002820490506001821680610db857607f821691505b602082108103610dcb57610dca610d71565b5b50919050565b600082825260208201905092915050565b7f4163636f756e747320616e642062616c616e636573206c656e677468206d697360008201527f6d61746368000000000000000000000000000000000000000000000000000000602082015250565b6000610e3e602583610dd1565b9150610e4982610de2565b604082019050919050565b60006020820190508181036000830152610e6d81610e31565b9050919050565b60008190508160005260206000209050919050565b60006020601f8301049050919050565b600082821b905092915050565b600060088302610ed67fffffffffffffffffffffffffffffffffffffffffffffffffffffffffffffffff82610e99565b610ee08683610e99565b95508019841693508086168417925050509392505050565b6000819050919050565b6000610f1d610f18610f1384610636565b610ef8565b610636565b9050919050565b6000819050919050565b610f3783610f02565b610f4b610f4382610f24565b848454610ea6565b825550505050565b600090565b610f60610f53565b610f6b818484610f2e565b505050565b5b81811015610f8f57610f84600082610f58565b600181019050610f71565b5050565b601f821115610fd457610fa581610e74565b610fae84610e89565b81016020851015610fbd578190505b610fd1610fc985610e89565b830182610f70565b50505b505050565b600082821c905092915050565b6000610ff760001984600802610fd9565b1980831691505092915050565b60006110108383610fe6565b9150826002028217905092915050565b611029826106c1565b67ffffffffffffffff8111156110425761104161090a565b5b61104c8254610da0565b611057828285610f93565b600060209050601f83116001811461108a5760008415611078578287015190505b6110828582611004565b8655506110ea565b601f19841661109886610e74565b60005b828110156110c05784890151825560018201915060208501945060208101905061109b565b868310156110dd57848901516110d9601f891682610fe6565b8355505b6001600288020188555050505b505050505050565b60006080820190506111076000830187610874565b6111146020830186610c8f565b81810360408301526111268185610caf565b90506111356060830184610874565b9594505050505056fea2646970667358221220196147686693f4ac81edf5552dcdfdac038cb93c463489372cf6557881dea41e64736f6c63430008180033",
          "opcodes": "PUSH1 0x80 PUSH1 0x40 MSTORE CALLVALUE DUP1 ISZERO PUSH3 0x11 JUMPI PUSH1 0x0 DUP1 REVERT JUMPDEST POP PUSH1 0x0 PUSH32 0xDEADBEEFDEADBEEFDEADBEEFDEADBEEFDEADBEEFDEADBEEFDEADBEEFDEADBEEF PUSH1 0x0 SHL SWAP1 POP PUSH1 0x0 PUSH1 0x40 MLOAD DUP1 PUSH1 0x40 ADD PUSH1 0x40 MSTORE DUP1 PUSH1 0x4 DUP2 MSTORE PUSH1 0x20 ADD PUSH32 0xDEADBEEF00000000000000000000000000000000000000000000000000000000 DUP2 MSTORE POP SWAP1 POP PUSH1 0x0 PUSH1 0x40 MLOAD DUP1 PUSH1 0xA0 ADD PUSH1 0x40 MSTORE DUP1 PUSH1 0x0 DUP2 MSTORE PUSH1 0x20 ADD PUSH1 0x0 DUP1 SHL DUP2 MSTORE PUSH1 0x20 ADD DUP5 DUP2 MSTORE PUSH1 0x20 ADD DUP4 DUP2 MSTORE PUSH1 0x20 ADD TIMESTAMP DUP2 MSTORE POP SWAP1 DUP1 PUSH1 0x1 DUP2 SLOAD ADD DUP1 DUP3 SSTORE DUP1 SWAP2 POP POP PUSH1 0x1 SWAP1 SUB SWAP1 PUSH1 0x0 MSTORE PUSH1 0x20 PUSH1 0x0 KECCAK256 SWAP1 PUSH1 0x5 MUL ADD PUSH1 0x0 SWAP1 SWAP2 SWAP1 SWAP2 SWAP1 SWAP2 POP PUSH1 0x0 DUP3 ADD MLOAD DUP2 PUSH1 0x0 ADD SSTORE PUSH1 0x20 DUP3 ADD MLOAD DUP2 PUSH1 0x1 ADD SSTORE PUSH1 0x40 DUP3 ADD MLOAD DUP2 PUSH1 0x2 ADD SSTORE PUSH1 0x60 DUP3 ADD MLOAD DUP2 PUSH1 0x3 ADD SWAP1 DUP2 PUSH3 0xFF SWAP2 SWAP1 PUSH3 0x3CE JUMP JUMPDEST POP PUSH1 0x80 DUP3 ADD MLOAD DUP2 PUSH1 0x4 ADD SSTORE POP POP PUSH32 0xCB48BDD94365A15068B6D26CD76700047B4C6451FABE79AD099DBACE43BE11E2 PUSH1 0x0 DUP4 DUP4 TIMESTAMP PUSH1 0x40 MLOAD PUSH3 0x144 SWAP5 SWAP4 SWAP3 SWAP2 SWAP1 PUSH3 0x5B3 JUMP JUMPDEST PUSH1 0x40 MLOAD DUP1 SWAP2 SUB SWAP1 LOG1 POP POP PUSH3 0x607 JUMP JUMPDEST PUSH1 0x0 DUP2 MLOAD SWAP1 POP SWAP2 SWAP1 POP JUMP JUMPDEST PUSH32 0x4E487B7100000000000000000000000000000000000000000000000000000000 PUSH1 0x0 MSTORE PUSH1 0x41 PUSH1 0x4 MSTORE PUSH1 0x24 PUSH1 0x0 REVERT JUMPDEST PUSH32 0x4E487B7100000000000000000000000000000000000000000000000000000000 PUSH1 0x0 MSTORE PUSH1 0x22 PUSH1 0x4 MSTORE PUSH1 0x24 PUSH1 0x0 REVERT JUMPDEST PUSH1 0x0 PUSH1 0x2 DUP3 DIV SWAP1 POP PUSH1 0x1 DUP3 AND DUP1 PUSH3 0x1D6 JUMPI PUSH1 0x7F DUP3 AND SWAP2 POP JUMPDEST PUSH1 0x20 DUP3 LT DUP2 SUB PUSH3 0x1EC JUMPI PUSH3 0x1EB PUSH3 0x18E JUMP JUMPDEST JUMPDEST POP SWAP2 SWAP1 POP JUMP JUMPDEST PUSH1 0x0 DUP2 SWAP1 POP DUP2 PUSH1 0x0 MSTORE PUSH1 0x20 PUSH1 0x0 KECCAK256 SWAP1 POP SWAP2 SWAP1 POP JUMP JUMPDEST PUSH1 0x0 PUSH1 0x20 PUSH1 0x1F DUP4 ADD DIV SWAP1 POP SWAP2 SWAP1 POP JUMP JUMPDEST PUSH1 0x0 DUP3 DUP3 SHL SWAP1 POP SWAP3 SWAP2 POP POP JUMP JUMPDEST PUSH1 0x0 PUSH1 0x8 DUP4 MUL PUSH3 0x256 PUSH32 0xFFFFFFFFFFFFFFFFFFFFFFFFFFFFFFFFFFFFFFFFFFFFFFFFFFFFFFFFFFFFFFFF DUP3 PUSH3 0x217 JUMP JUMPDEST PUSH3 0x262 DUP7 DUP4 PUSH3 0x217 JUMP JUMPDEST SWAP6 POP DUP1 NOT DUP5 AND SWAP4 POP DUP1 DUP7 AND DUP5 OR SWAP3 POP POP POP SWAP4 SWAP3 POP POP POP JUMP JUMPDEST PUSH1 0x0 DUP2 SWAP1 POP SWAP2 SWAP1 POP JUMP JUMPDEST PUSH1 0x0 DUP2 SWAP1 POP SWAP2 SWAP1 POP JUMP JUMPDEST PUSH1 0x0 PUSH3 0x2AF PUSH3 0x2A9 PUSH3 0x2A3 DUP5 PUSH3 0x27A JUMP JUMPDEST PUSH3 0x284 JUMP JUMPDEST PUSH3 0x27A JUMP JUMPDEST SWAP1 POP SWAP2 SWAP1 POP JUMP JUMPDEST PUSH1 0x0 DUP2 SWAP1 POP SWAP2 SWAP1 POP JUMP JUMPDEST PUSH3 0x2CB DUP4 PUSH3 0x28E JUMP JUMPDEST PUSH3 0x2E3 PUSH3 0x2DA DUP3 PUSH3 0x2B6 JUMP JUMPDEST DUP5 DUP5 SLOAD PUSH3 0x224 JUMP JUMPDEST DUP3 SSTORE POP POP POP POP JUMP JUMPDEST PUSH1 0x0 SWAP1 JUMP JUMPDEST PUSH3 0x2FA PUSH3 0x2EB JUMP JUMPDEST PUSH3 0x307 DUP2 DUP5 DUP5 PUSH3 0x2C0 JUMP JUMPDEST POP POP POP JUMP JUMPDEST JUMPDEST DUP2 DUP2 LT ISZERO PUSH3 0x32F JUMPI PUSH3 0x323 PUSH1 0x0 DUP3 PUSH3 0x2F0 JUMP JUMPDEST PUSH1 0x1 DUP2 ADD SWAP1 POP PUSH3 0x30D JUMP JUMPDEST POP POP JUMP JUMPDEST PUSH1 0x1F DUP3 GT ISZERO PUSH3 0x37E JUMPI PUSH3 0x348 DUP2 PUSH3 0x1F2 JUMP JUMPDEST PUSH3 0x353 DUP5 PUSH3 0x207 JUMP JUMPDEST DUP2 ADD PUSH1 0x20 DUP6 LT ISZERO PUSH3 0x363 JUMPI DUP2 SWAP1 POP JUMPDEST PUSH3 0x37B PUSH3 0x372 DUP6 PUSH3 0x207 JUMP JUMPDEST DUP4 ADD DUP3 PUSH3 0x30C JUMP JUMPDEST POP POP JUMPDEST POP POP POP JUMP JUMPDEST PUSH1 0x0 DUP3 DUP3 SHR SWAP1 POP SWAP3 SWAP2 POP POP JUMP JUMPDEST PUSH1 0x0 PUSH3 0x3A3 PUSH1 0x0 NOT DUP5 PUSH1 0x8 MUL PUSH3 0x383 JUMP JUMPDEST NOT DUP1 DUP4 AND SWAP2 POP POP SWAP3 SWAP2 POP POP JUMP JUMPDEST PUSH1 0x0 PUSH3 0x3BE DUP4 DUP4 PUSH3 0x390 JUMP JUMPDEST SWAP2 POP DUP3 PUSH1 0x2 MUL DUP3 OR SWAP1 POP SWAP3 SWAP2 POP POP JUMP JUMPDEST PUSH3 0x3D9 DUP3 PUSH3 0x154 JUMP JUMPDEST PUSH8 0xFFFFFFFFFFFFFFFF DUP2 GT ISZERO PUSH3 0x3F5 JUMPI PUSH3 0x3F4 PUSH3 0x15F JUMP JUMPDEST JUMPDEST PUSH3 0x401 DUP3 SLOAD PUSH3 0x1BD JUMP JUMPDEST PUSH3 0x40E DUP3 DUP3 DUP6 PUSH3 0x333 JUMP JUMPDEST PUSH1 0x0 PUSH1 0x20 SWAP1 POP PUSH1 0x1F DUP4 GT PUSH1 0x1 DUP2 EQ PUSH3 0x446 JUMPI PUSH1 0x0 DUP5 ISZERO PUSH3 0x431 JUMPI DUP3 DUP8 ADD MLOAD SWAP1 POP JUMPDEST PUSH3 0x43D DUP6 DUP3 PUSH3 0x3B0 JUMP JUMPDEST DUP7 SSTORE POP PUSH3 0x4AD JUMP JUMPDEST PUSH1 0x1F NOT DUP5 AND PUSH3 0x456 DUP7 PUSH3 0x1F2 JUMP JUMPDEST PUSH1 0x0 JUMPDEST DUP3 DUP2 LT ISZERO PUSH3 0x480 JUMPI DUP5 DUP10 ADD MLOAD DUP3 SSTORE PUSH1 0x1 DUP3 ADD SWAP2 POP PUSH1 0x20 DUP6 ADD SWAP5 POP PUSH1 0x20 DUP2 ADD SWAP1 POP PUSH3 0x459 JUMP JUMPDEST DUP7 DUP4 LT ISZERO PUSH3 0x4A0 JUMPI DUP5 DUP10 ADD MLOAD PUSH3 0x49C PUSH1 0x1F DUP10 AND DUP3 PUSH3 0x390 JUMP JUMPDEST DUP4 SSTORE POP JUMPDEST PUSH1 0x1 PUSH1 0x2 DUP9 MUL ADD DUP9 SSTORE POP POP POP JUMPDEST POP POP POP POP POP POP JUMP JUMPDEST PUSH1 0x0 DUP2 SWAP1 POP SWAP2 SWAP1 POP JUMP JUMPDEST PUSH1 0x0 PUSH3 0x4E0 PUSH3 0x4DA PUSH3 0x4D4 DUP5 PUSH3 0x4B5 JUMP JUMPDEST PUSH3 0x284 JUMP JUMPDEST PUSH3 0x27A JUMP JUMPDEST SWAP1 POP SWAP2 SWAP1 POP JUMP JUMPDEST PUSH3 0x4F2 DUP2 PUSH3 0x4BF JUMP JUMPDEST DUP3 MSTORE POP POP JUMP JUMPDEST PUSH1 0x0 DUP2 SWAP1 POP SWAP2 SWAP1 POP JUMP JUMPDEST PUSH3 0x50D DUP2 PUSH3 0x4F8 JUMP JUMPDEST DUP3 MSTORE POP POP JUMP JUMPDEST PUSH1 0x0 DUP3 DUP3 MSTORE PUSH1 0x20 DUP3 ADD SWAP1 POP SWAP3 SWAP2 POP POP JUMP JUMPDEST PUSH1 0x0 JUMPDEST DUP4 DUP2 LT ISZERO PUSH3 0x544 JUMPI DUP1 DUP3 ADD MLOAD DUP2 DUP5 ADD MSTORE PUSH1 0x20 DUP2 ADD SWAP1 POP PUSH3 0x527 JUMP JUMPDEST PUSH1 0x0 DUP5 DUP5 ADD MSTORE POP POP POP POP JUMP JUMPDEST PUSH1 0x0 PUSH1 0x1F NOT PUSH1 0x1F DUP4 ADD AND SWAP1 POP SWAP2 SWAP1 POP JUMP JUMPDEST PUSH1 0x0 PUSH3 0x56E DUP3 PUSH3 0x154 JUMP JUMPDEST PUSH3 0x57A DUP2 DUP6 PUSH3 0x513 JUMP JUMPDEST SWAP4 POP PUSH3 0x58C DUP2 DUP6 PUSH1 0x20 DUP7 ADD PUSH3 0x524 JUMP JUMPDEST PUSH3 0x597 DUP2 PUSH3 0x550 JUMP JUMPDEST DUP5 ADD SWAP2 POP POP SWAP3 SWAP2 POP POP JUMP JUMPDEST PUSH3 0x5AD DUP2 PUSH3 0x27A JUMP JUMPDEST DUP3 MSTORE POP POP JUMP JUMPDEST PUSH1 0x0 PUSH1 0x80 DUP3 ADD SWAP1 POP PUSH3 0x5CA PUSH1 0x0 DUP4 ADD DUP8 PUSH3 0x4E7 JUMP JUMPDEST PUSH3 0x5D9 PUSH1 0x20 DUP4 ADD DUP7 PUSH3 0x502 JUMP JUMPDEST DUP2 DUP2 SUB PUSH1 0x40 DUP4 ADD MSTORE PUSH3 0x5ED DUP2 DUP6 PUSH3 0x561 JUMP JUMPDEST SWAP1 POP PUSH3 0x5FE PUSH1 0x60 DUP4 ADD DUP5 PUSH3 0x5A2 JUMP JUMPDEST SWAP6 SWAP5 POP POP POP POP POP JUMP JUMPDEST PUSH2 0x1174 DUP1 PUSH3 0x617 PUSH1 0x0 CODECOPY PUSH1 0x0 RETURN INVALID PUSH1 0x80 PUSH1 0x40 MSTORE CALLVALUE DUP1 ISZERO PUSH2 0x10 JUMPI PUSH1 0x0 DUP1 REVERT JUMPDEST POP PUSH1 0x4 CALLDATASIZE LT PUSH2 0x88 JUMPI PUSH1 0x0 CALLDATALOAD PUSH1 0xE0 SHR DUP1 PUSH4 0xCC0BD62E GT PUSH2 0x5B JUMPI DUP1 PUSH4 0xCC0BD62E EQ PUSH2 0x13B JUMPI DUP1 PUSH4 0xEF1A3B56 EQ PUSH2 0x159 JUMPI DUP1 PUSH4 0xF25B3F99 EQ PUSH2 0x175 JUMPI DUP1 PUSH4 0xF8B2CB4F EQ PUSH2 0x1A9 JUMPI PUSH2 0x88 JUMP JUMPDEST DUP1 PUSH4 0x4C07569 EQ PUSH2 0x8D JUMPI DUP1 PUSH4 0x27E235E3 EQ PUSH2 0xBD JUMPI DUP1 PUSH4 0xBAAAEDA7 EQ PUSH2 0xED JUMPI DUP1 PUSH4 0xC3A079ED EQ PUSH2 0x11D JUMPI JUMPDEST PUSH1 0x0 DUP1 REVERT JUMPDEST PUSH2 0xA7 PUSH1 0x4 DUP1 CALLDATASIZE SUB DUP2 ADD SWAP1 PUSH2 0xA2 SWAP2 SWAP1 PUSH2 0x66C JUMP JUMPDEST PUSH2 0x1D9 JUMP JUMPDEST PUSH1 0x40 MLOAD PUSH2 0xB4 SWAP2 SWAP1 PUSH2 0x7C7 JUMP JUMPDEST PUSH1 0x40 MLOAD DUP1 SWAP2 SUB SWAP1 RETURN JUMPDEST PUSH2 0xD7 PUSH1 0x4 DUP1 CALLDATASIZE SUB DUP2 ADD SWAP1 PUSH2 0xD2 SWAP2 SWAP1 PUSH2 0x847 JUMP JUMPDEST PUSH2 0x2CF JUMP JUMPDEST PUSH1 0x40 MLOAD PUSH2 0xE4 SWAP2 SWAP1 PUSH2 0x883 JUMP JUMPDEST PUSH1 0x40 MLOAD DUP1 SWAP2 SUB SWAP1 RETURN JUMPDEST PUSH2 0x107 PUSH1 0x4 DUP1 CALLDATASIZE SUB DUP2 ADD SWAP1 PUSH2 0x102 SWAP2 SWAP1 PUSH2 0x66C JUMP JUMPDEST PUSH2 0x2E7 JUMP JUMPDEST PUSH1 0x40 MLOAD PUSH2 0x114 SWAP2 SWAP1 PUSH2 0x8B9 JUMP JUMPDEST PUSH1 0x40 MLOAD DUP1 SWAP2 SUB SWAP1 RETURN JUMPDEST PUSH2 0x125 PUSH2 0x307 JUMP JUMPDEST PUSH1 0x40 MLOAD PUSH2 0x132 SWAP2 SWAP1 PUSH2 0x883 JUMP JUMPDEST PUSH1 0x40 MLOAD DUP1 SWAP2 SUB SWAP1 RETURN JUMPDEST PUSH2 0x143 PUSH2 0x30E JUMP JUMPDEST PUSH1 0x40 MLOAD PUSH2 0x150 SWAP2 SWAP1 PUSH2 0x883 JUMP JUMPDEST PUSH1 0x40 MLOAD DUP1 SWAP2 SUB SWAP1 RETURN JUMPDEST PUSH2 0x173 PUSH1 0x4 DUP1 CALLDATASIZE SUB DUP2 ADD SWAP1 PUSH2 0x16E SWAP2 SWAP1 PUSH2 0xBC0 JUMP JUMPDEST PUSH2 0x31A JUMP JUMPDEST STOP JUMPDEST PUSH2 0x18F PUSH1 0x4 DUP1 CALLDATASIZE SUB DUP2 ADD SWAP1 PUSH2 0x18A SWAP2 SWAP1 PUSH2 0x66C JUMP JUMPDEST PUSH2 0x4D6 JUMP JUMPDEST PUSH1 0x40 MLOAD PUSH2 0x1A0 SWAP6 SWAP5 SWAP4 SWAP3 SWAP2 SWAP1 PUSH2 0xCE8 JUMP JUMPDEST PUSH1 0x40 MLOAD DUP1 SWAP2 SUB SWAP1 RETURN JUMPDEST PUSH2 0x1C3 PUSH1 0x4 DUP1 CALLDATASIZE SUB DUP2 ADD SWAP1 PUSH2 0x1BE SWAP2 SWAP1 PUSH2 0x847 JUMP JUMPDEST PUSH2 0x5A4 JUMP JUMPDEST PUSH1 0x40 MLOAD PUSH2 0x1D0 SWAP2 SWAP1 PUSH2 0x883 JUMP JUMPDEST PUSH1 0x40 MLOAD DUP1 SWAP2 SUB SWAP1 RETURN JUMPDEST PUSH2 0x1E1 PUSH2 0x5ED JUMP JUMPDEST PUSH1 0x0 DUP3 DUP2 SLOAD DUP2 LT PUSH2 0x1F5 JUMPI PUSH2 0x1F4 PUSH2 0xD42 JUMP JUMPDEST JUMPDEST SWAP1 PUSH1 0x0 MSTORE PUSH1 0x20 PUSH1 0x0 KECCAK256 SWAP1 PUSH1 0x5 MUL ADD PUSH1 0x40 MLOAD DUP1 PUSH1 0xA0 ADD PUSH1 0x40 MSTORE SWAP1 DUP2 PUSH1 0x0 DUP3 ADD SLOAD DUP2 MSTORE PUSH1 0x20 ADD PUSH1 0x1 DUP3 ADD SLOAD DUP2 MSTORE PUSH1 0x20 ADD PUSH1 0x2 DUP3 ADD SLOAD DUP2 MSTORE PUSH1 0x20 ADD PUSH1 0x3 DUP3 ADD DUP1 SLOAD PUSH2 0x23C SWAP1 PUSH2 0xDA0 JUMP JUMPDEST DUP1 PUSH1 0x1F ADD PUSH1 0x20 DUP1 SWAP2 DIV MUL PUSH1 0x20 ADD PUSH1 0x40 MLOAD SWAP1 DUP2 ADD PUSH1 0x40 MSTORE DUP1 SWAP3 SWAP2 SWAP1 DUP2 DUP2 MSTORE PUSH1 0x20 ADD DUP3 DUP1 SLOAD PUSH2 0x268 SWAP1 PUSH2 0xDA0 JUMP JUMPDEST DUP1 ISZERO PUSH2 0x2B5 JUMPI DUP1 PUSH1 0x1F LT PUSH2 0x28A JUMPI PUSH2 0x100 DUP1 DUP4 SLOAD DIV MUL DUP4 MSTORE SWAP2 PUSH1 0x20 ADD SWAP2 PUSH2 0x2B5 JUMP JUMPDEST DUP3 ADD SWAP2 SWAP1 PUSH1 0x0 MSTORE PUSH1 0x20 PUSH1 0x0 KECCAK256 SWAP1 JUMPDEST DUP2 SLOAD DUP2 MSTORE SWAP1 PUSH1 0x1 ADD SWAP1 PUSH1 0x20 ADD DUP1 DUP4 GT PUSH2 0x298 JUMPI DUP3 SWAP1 SUB PUSH1 0x1F AND DUP3 ADD SWAP2 JUMPDEST POP POP POP POP POP DUP2 MSTORE PUSH1 0x20 ADD PUSH1 0x4 DUP3 ADD SLOAD DUP2 MSTORE POP POP SWAP1 POP SWAP2 SWAP1 POP JUMP JUMPDEST PUSH1 0x2 PUSH1 0x20 MSTORE DUP1 PUSH1 0x0 MSTORE PUSH1 0x40 PUSH1 0x0 KECCAK256 PUSH1 0x0 SWAP2 POP SWAP1 POP SLOAD DUP2 JUMP JUMPDEST PUSH1 0x1 PUSH1 0x20 MSTORE DUP1 PUSH1 0x0 MSTORE PUSH1 0x40 PUSH1 0x0 KECCAK256 PUSH1 0x0 SWAP2 POP SLOAD SWAP1 PUSH2 0x100 EXP SWAP1 DIV PUSH1 0xFF AND DUP2 JUMP JUMPDEST PUSH3 0x93A80 DUP2 JUMP JUMPDEST PUSH1 0x0 DUP1 DUP1 SLOAD SWAP1 POP SWAP1 POP SWAP1 JUMP JUMPDEST DUP1 MLOAD DUP3 MLOAD EQ PUSH2 0x35E JUMPI PUSH1 0x40 MLOAD PUSH32 0x8C379A000000000000000000000000000000000000000000000000000000000 DUP2 MSTORE PUSH1 0x4 ADD PUSH2 0x355 SWAP1 PUSH2 0xE54 JUMP JUMPDEST PUSH1 0x40 MLOAD DUP1 SWAP2 SUB SWAP1 REVERT JUMPDEST PUSH1 0x0 DUP1 DUP1 SLOAD SWAP1 POP SWAP1 POP PUSH1 0x0 TIMESTAMP SWAP1 POP PUSH1 0x0 JUMPDEST DUP5 MLOAD DUP2 LT ISZERO PUSH2 0x3FD JUMPI DUP4 DUP2 DUP2 MLOAD DUP2 LT PUSH2 0x38B JUMPI PUSH2 0x38A PUSH2 0xD42 JUMP JUMPDEST JUMPDEST PUSH1 0x20 MUL PUSH1 0x20 ADD ADD MLOAD PUSH1 0x2 PUSH1 0x0 DUP8 DUP5 DUP2 MLOAD DUP2 LT PUSH2 0x3AA JUMPI PUSH2 0x3A9 PUSH2 0xD42 JUMP JUMPDEST JUMPDEST PUSH1 0x20 MUL PUSH1 0x20 ADD ADD MLOAD PUSH20 0xFFFFFFFFFFFFFFFFFFFFFFFFFFFFFFFFFFFFFFFF AND PUSH20 0xFFFFFFFFFFFFFFFFFFFFFFFFFFFFFFFFFFFFFFFF AND DUP2 MSTORE PUSH1 0x20 ADD SWAP1 DUP2 MSTORE PUSH1 0x20 ADD PUSH1 0x0 KECCAK256 DUP2 SWAP1 SSTORE POP DUP1 DUP1 PUSH1 0x1 ADD SWAP2 POP POP PUSH2 0x36F JUMP JUMPDEST POP PUSH1 0x0 PUSH1 0x40 MLOAD DUP1 PUSH1 0xA0 ADD PUSH1 0x40 MSTORE DUP1 DUP5 DUP2 MSTORE PUSH1 0x20 ADD DUP10 DUP2 MSTORE PUSH1 0x20 ADD DUP9 DUP2 MSTORE PUSH1 0x20 ADD DUP8 DUP2 MSTORE PUSH1 0x20 ADD DUP4 DUP2 MSTORE POP SWAP1 DUP1 PUSH1 0x1 DUP2 SLOAD ADD DUP1 DUP3 SSTORE DUP1 SWAP2 POP POP PUSH1 0x1 SWAP1 SUB SWAP1 PUSH1 0x0 MSTORE PUSH1 0x20 PUSH1 0x0 KECCAK256 SWAP1 PUSH1 0x5 MUL ADD PUSH1 0x0 SWAP1 SWAP2 SWAP1 SWAP2 SWAP1 SWAP2 POP PUSH1 0x0 DUP3 ADD MLOAD DUP2 PUSH1 0x0 ADD SSTORE PUSH1 0x20 DUP3 ADD MLOAD DUP2 PUSH1 0x1 ADD SSTORE PUSH1 0x40 DUP3 ADD MLOAD DUP2 PUSH1 0x2 ADD SSTORE PUSH1 0x60 DUP3 ADD MLOAD DUP2 PUSH1 0x3 ADD SWAP1 DUP2 PUSH2 0x483 SWAP2 SWAP1 PUSH2 0x1020 JUMP JUMPDEST POP PUSH1 0x80 DUP3 ADD MLOAD DUP2 PUSH1 0x4 ADD SSTORE POP POP PUSH32 0xCB48BDD94365A15068B6D26CD76700047B4C6451FABE79AD099DBACE43BE11E2 DUP3 DUP8 DUP8 DUP5 PUSH1 0x40 MLOAD PUSH2 0x4C5 SWAP5 SWAP4 SWAP3 SWAP2 SWAP1 PUSH2 0x10F2 JUMP JUMPDEST PUSH1 0x40 MLOAD DUP1 SWAP2 SUB SWAP1 LOG1 POP POP POP POP POP POP POP JUMP JUMPDEST PUSH1 0x0 DUP2 DUP2 SLOAD DUP2 LT PUSH2 0x4E6 JUMPI PUSH1 0x0 DUP1 REVERT JUMPDEST SWAP1 PUSH1 0x0 MSTORE PUSH1 0x20 PUSH1 0x0 KECCAK256 SWAP1 PUSH1 0x5 MUL ADD PUSH1 0x0 SWAP2 POP SWAP1 POP DUP1 PUSH1 0x0 ADD SLOAD SWAP1 DUP1 PUSH1 0x1 ADD SLOAD SWAP1 DUP1 PUSH1 0x2 ADD SLOAD SWAP1 DUP1 PUSH1 0x3 ADD DUP1 SLOAD PUSH2 0x51B SWAP1 PUSH2 0xDA0 JUMP JUMPDEST DUP1 PUSH1 0x1F ADD PUSH1 0x20 DUP1 SWAP2 DIV MUL PUSH1 0x20 ADD PUSH1 0x40 MLOAD SWAP1 DUP2 ADD PUSH1 0x40 MSTORE DUP1 SWAP3 SWAP2 SWAP1 DUP2 DUP2 MSTORE PUSH1 0x20 ADD DUP3 DUP1 SLOAD PUSH2 0x547 SWAP1 PUSH2 0xDA0 JUMP JUMPDEST DUP1 ISZERO PUSH2 0x594 JUMPI DUP1 PUSH1 0x1F LT PUSH2 0x569 JUMPI PUSH2 0x100 DUP1 DUP4 SLOAD DIV MUL DUP4 MSTORE SWAP2 PUSH1 0x20 ADD SWAP2 PUSH2 0x594 JUMP JUMPDEST DUP3 ADD SWAP2 SWAP1 PUSH1 0x0 MSTORE PUSH1 0x20 PUSH1 0x0 KECCAK256 SWAP1 JUMPDEST DUP2 SLOAD DUP2 MSTORE SWAP1 PUSH1 0x1 ADD SWAP1 PUSH1 0x20 ADD DUP1 DUP4 GT PUSH2 0x577 JUMPI DUP3 SWAP1 SUB PUSH1 0x1F AND DUP3 ADD SWAP2 JUMPDEST POP POP POP POP POP SWAP1 DUP1 PUSH1 0x4 ADD SLOAD SWAP1 POP DUP6 JUMP JUMPDEST PUSH1 0x0 PUSH1 0x2 PUSH1 0x0 DUP4 PUSH20 0xFFFFFFFFFFFFFFFFFFFFFFFFFFFFFFFFFFFFFFFF AND PUSH20 0xFFFFFFFFFFFFFFFFFFFFFFFFFFFFFFFFFFFFFFFF AND DUP2 MSTORE PUSH1 0x20 ADD SWAP1 DUP2 MSTORE PUSH1 0x20 ADD PUSH1 0x0 KECCAK256 SLOAD SWAP1 POP SWAP2 SWAP1 POP JUMP JUMPDEST PUSH1 0x40 MLOAD DUP1 PUSH1 0xA0 ADD PUSH1 0x40 MSTORE DUP1 PUSH1 0x0 DUP2 MSTORE PUSH1 0x20 ADD PUSH1 0x0 DUP1 NOT AND DUP2 MSTORE PUSH1 0x20 ADD PUSH1 0x0 DUP1 NOT AND DUP2 MSTORE PUSH1 0x20 ADD PUSH1 0x60 DUP2 MSTORE PUSH1 0x20 ADD PUSH1 0x0 DUP2 MSTORE POP SWAP1 JUMP JUMPDEST PUSH1 0x0 PUSH1 0x40 MLOAD SWAP1 POP SWAP1 JUMP JUMPDEST PUSH1 0x0 DUP1 REVERT JUMPDEST PUSH1 0x0 DUP1 REVERT JUMPDEST PUSH1 0x0 DUP2 SWAP1 POP SWAP2 SWAP1 POP JUMP JUMPDEST PUSH2 0x649 DUP2 PUSH2 0x636 JUMP JUMPDEST DUP2 EQ PUSH2 0x654 JUMPI PUSH1 0x0 DUP1 REVERT JUMPDEST POP JUMP JUMPDEST PUSH1 0x0 DUP2 CALLDATALOAD SWAP1 POP PUSH2 0x666 DUP2 PUSH2 0x640 JUMP JUMPDEST SWAP3 SWAP2 POP POP JUMP JUMPDEST PUSH1 0x0 PUSH1 0x20 DUP3 DUP5 SUB SLT ISZERO PUSH2 0x682 JUMPI PUSH2 0x681 PUSH2 0x62C JUMP JUMPDEST JUMPDEST PUSH1 0x0 PUSH2 0x690 DUP5 DUP3 DUP6 ADD PUSH2 0x657 JUMP JUMPDEST SWAP2 POP POP SWAP3 SWAP2 POP POP JUMP JUMPDEST PUSH2 0x6A2 DUP2 PUSH2 0x636 JUMP JUMPDEST DUP3 MSTORE POP POP JUMP JUMPDEST PUSH1 0x0 DUP2 SWAP1 POP SWAP2 SWAP1 POP JUMP JUMPDEST PUSH2 0x6BB DUP2 PUSH2 0x6A8 JUMP JUMPDEST DUP3 MSTORE POP POP JUMP JUMPDEST PUSH1 0x0 DUP2 MLOAD SWAP1 POP SWAP2 SWAP1 POP JUMP JUMPDEST PUSH1 0x0 DUP3 DUP3 MSTORE PUSH1 0x20 DUP3 ADD SWAP1 POP SWAP3 SWAP2 POP POP JUMP JUMPDEST PUSH1 0x0 JUMPDEST DUP4 DUP2 LT ISZERO PUSH2 0x6FB JUMPI DUP1 DUP3 ADD MLOAD DUP2 DUP5 ADD MSTORE PUSH1 0x20 DUP2 ADD SWAP1 POP PUSH2 0x6E0 JUMP JUMPDEST PUSH1 0x0 DUP5 DUP5 ADD MSTORE POP POP POP POP JUMP JUMPDEST PUSH1 0x0 PUSH1 0x1F NOT PUSH1 0x1F DUP4 ADD AND SWAP1 POP SWAP2 SWAP1 POP JUMP JUMPDEST PUSH1 0x0 PUSH2 0x723 DUP3 PUSH2 0x6C1 JUMP JUMPDEST PUSH2 0x72D DUP2 DUP6 PUSH2 0x6CC JUMP JUMPDEST SWAP4 POP PUSH2 0x73D DUP2 DUP6 PUSH1 0x20 DUP7 ADD PUSH2 0x6DD JUMP JUMPDEST PUSH2 0x746 DUP2 PUSH2 0x707 JUMP JUMPDEST DUP5 ADD SWAP2 POP POP SWAP3 SWAP2 POP POP JUMP JUMPDEST PUSH1 0x0 PUSH1 0xA0 DUP4 ADD PUSH1 0x0 DUP4 ADD MLOAD PUSH2 0x769 PUSH1 0x0 DUP7 ADD DUP3 PUSH2 0x699 JUMP JUMPDEST POP PUSH1 0x20 DUP4 ADD MLOAD PUSH2 0x77C PUSH1 0x20 DUP7 ADD DUP3 PUSH2 0x6B2 JUMP JUMPDEST POP PUSH1 0x40 DUP4 ADD MLOAD PUSH2 0x78F PUSH1 0x40 DUP7 ADD DUP3 PUSH2 0x6B2 JUMP JUMPDEST POP PUSH1 0x60 DUP4 ADD MLOAD DUP5 DUP3 SUB PUSH1 0x60 DUP7 ADD MSTORE PUSH2 0x7A7 DUP3 DUP3 PUSH2 0x718 JUMP JUMPDEST SWAP2 POP POP PUSH1 0x80 DUP4 ADD MLOAD PUSH2 0x7BC PUSH1 0x80 DUP7 ADD DUP3 PUSH2 0x699 JUMP JUMPDEST POP DUP1 SWAP2 POP POP SWAP3 SWAP2 POP POP JUMP JUMPDEST PUSH1 0x0 PUSH1 0x20 DUP3 ADD SWAP1 POP DUP2 DUP2 SUB PUSH1 0x0 DUP4 ADD MSTORE PUSH2 0x7E1 DUP2 DUP5 PUSH2 0x751 JUMP JUMPDEST SWAP1 POP SWAP3 SWAP2 POP POP JUMP JUMPDEST PUSH1 0x0 PUSH20 0xFFFFFFFFFFFFFFFFFFFFFFFFFFFFFFFFFFFFFFFF DUP3 AND SWAP1 POP SWAP2 SWAP1 POP JUMP JUMPDEST PUSH1 0x0 PUSH2 0x814 DUP3 PUSH2 0x7E9 JUMP JUMPDEST SWAP1 POP SWAP2 SWAP1 POP JUMP JUMPDEST PUSH2 0x824 DUP2 PUSH2 0x809 JUMP JUMPDEST DUP2 EQ PUSH2 0x82F JUMPI PUSH1 0x0 DUP1 REVERT JUMPDEST POP JUMP JUMPDEST PUSH1 0x0 DUP2 CALLDATALOAD SWAP1 POP PUSH2 0x841 DUP2 PUSH2 0x81B JUMP JUMPDEST SWAP3 SWAP2 POP POP JUMP JUMPDEST PUSH1 0x0 PUSH1 0x20 DUP3 DUP5 SUB SLT ISZERO PUSH2 0x85D JUMPI PUSH2 0x85C PUSH2 0x62C JUMP JUMPDEST JUMPDEST PUSH1 0x0 PUSH2 0x86B DUP5 DUP3 DUP6 ADD PUSH2 0x832 JUMP JUMPDEST SWAP2 POP POP SWAP3 SWAP2 POP POP JUMP JUMPDEST PUSH2 0x87D DUP2 PUSH2 0x636 JUMP JUMPDEST DUP3 MSTORE POP POP JUMP JUMPDEST PUSH1 0x0 PUSH1 0x20 DUP3 ADD SWAP1 POP PUSH2 0x898 PUSH1 0x0 DUP4 ADD DUP5 PUSH2 0x874 JUMP JUMPDEST SWAP3 SWAP2 POP POP JUMP JUMPDEST PUSH1 0x0 DUP2 ISZERO ISZERO SWAP1 POP SWAP2 SWAP1 POP JUMP JUMPDEST PUSH2 0x8B3 DUP2 PUSH2 0x89E JUMP JUMPDEST DUP3 MSTORE POP POP JUMP JUMPDEST PUSH1 0x0 PUSH1 0x20 DUP3 ADD SWAP1 POP PUSH2 0x8CE PUSH1 0x0 DUP4 ADD DUP5 PUSH2 0x8AA JUMP JUMPDEST SWAP3 SWAP2 POP POP JUMP JUMPDEST PUSH2 0x8DD DUP2 PUSH2 0x6A8 JUMP JUMPDEST DUP2 EQ PUSH2 0x8E8 JUMPI PUSH1 0x0 DUP1 REVERT JUMPDEST POP JUMP JUMPDEST PUSH1 0x0 DUP2 CALLDATALOAD SWAP1 POP PUSH2 0x8FA DUP2 PUSH2 0x8D4 JUMP JUMPDEST SWAP3 SWAP2 POP POP JUMP JUMPDEST PUSH1 0x0 DUP1 REVERT JUMPDEST PUSH1 0x0 DUP1 REVERT JUMPDEST PUSH32 0x4E487B7100000000000000000000000000000000000000000000000000000000 PUSH1 0x0 MSTORE PUSH1 0x41 PUSH1 0x4 MSTORE PUSH1 0x24 PUSH1 0x0 REVERT JUMPDEST PUSH2 0x942 DUP3 PUSH2 0x707 JUMP JUMPDEST DUP2 ADD DUP2 DUP2 LT PUSH8 0xFFFFFFFFFFFFFFFF DUP3 GT OR ISZERO PUSH2 0x961 JUMPI PUSH2 0x960 PUSH2 0x90A JUMP JUMPDEST JUMPDEST DUP1 PUSH1 0x40 MSTORE POP POP POP JUMP JUMPDEST PUSH1 0x0 PUSH2 0x974 PUSH2 0x622 JUMP JUMPDEST SWAP1 POP PUSH2 0x980 DUP3 DUP3 PUSH2 0x939 JUMP JUMPDEST SWAP2 SWAP1 POP JUMP JUMPDEST PUSH1 0x0 PUSH8 0xFFFFFFFFFFFFFFFF DUP3 GT ISZERO PUSH2 0x9A0 JUMPI PUSH2 0x99F PUSH2 0x90A JUMP JUMPDEST JUMPDEST PUSH2 0x9A9 DUP3 PUSH2 0x707 JUMP JUMPDEST SWAP1 POP PUSH1 0x20 DUP2 ADD SWAP1 POP SWAP2 SWAP1 POP JUMP JUMPDEST DUP3 DUP2 DUP4 CALLDATACOPY PUSH1 0x0 DUP4 DUP4 ADD MSTORE POP POP POP JUMP JUMPDEST PUSH1 0x0 PUSH2 0x9D8 PUSH2 0x9D3 DUP5 PUSH2 0x985 JUMP JUMPDEST PUSH2 0x96A JUMP JUMPDEST SWAP1 POP DUP3 DUP2 MSTORE PUSH1 0x20 DUP2 ADD DUP5 DUP5 DUP5 ADD GT ISZERO PUSH2 0x9F4 JUMPI PUSH2 0x9F3 PUSH2 0x905 JUMP JUMPDEST JUMPDEST PUSH2 0x9FF DUP5 DUP3 DUP6 PUSH2 0x9B6 JUMP JUMPDEST POP SWAP4 SWAP3 POP POP POP JUMP JUMPDEST PUSH1 0x0 DUP3 PUSH1 0x1F DUP4 ADD SLT PUSH2 0xA1C JUMPI PUSH2 0xA1B PUSH2 0x900 JUMP JUMPDEST JUMPDEST DUP2 CALLDATALOAD PUSH2 0xA2C DUP5 DUP3 PUSH1 0x20 DUP7 ADD PUSH2 0x9C5 JUMP JUMPDEST SWAP2 POP POP SWAP3 SWAP2 POP POP JUMP JUMPDEST PUSH1 0x0 PUSH8 0xFFFFFFFFFFFFFFFF DUP3 GT ISZERO PUSH2 0xA50 JUMPI PUSH2 0xA4F PUSH2 0x90A JUMP JUMPDEST JUMPDEST PUSH1 0x20 DUP3 MUL SWAP1 POP PUSH1 0x20 DUP2 ADD SWAP1 POP SWAP2 SWAP1 POP JUMP JUMPDEST PUSH1 0x0 DUP1 REVERT JUMPDEST PUSH1 0x0 PUSH2 0xA79 PUSH2 0xA74 DUP5 PUSH2 0xA35 JUMP JUMPDEST PUSH2 0x96A JUMP JUMPDEST SWAP1 POP DUP1 DUP4 DUP3 MSTORE PUSH1 0x20 DUP3 ADD SWAP1 POP PUSH1 0x20 DUP5 MUL DUP4 ADD DUP6 DUP2 GT ISZERO PUSH2 0xA9C JUMPI PUSH2 0xA9B PUSH2 0xA61 JUMP JUMPDEST JUMPDEST DUP4 JUMPDEST DUP2 DUP2 LT ISZERO PUSH2 0xAC5 JUMPI DUP1 PUSH2 0xAB1 DUP9 DUP3 PUSH2 0x832 JUMP JUMPDEST DUP5 MSTORE PUSH1 0x20 DUP5 ADD SWAP4 POP POP PUSH1 0x20 DUP2 ADD SWAP1 POP PUSH2 0xA9E JUMP JUMPDEST POP POP POP SWAP4 SWAP3 POP POP POP JUMP JUMPDEST PUSH1 0x0 DUP3 PUSH1 0x1F DUP4 ADD SLT PUSH2 0xAE4 JUMPI PUSH2 0xAE3 PUSH2 0x900 JUMP JUMPDEST JUMPDEST DUP2 CALLDATALOAD PUSH2 0xAF4 DUP5 DUP3 PUSH1 0x20 DUP7 ADD PUSH2 0xA66 JUMP JUMPDEST SWAP2 POP POP SWAP3 SWAP2 POP POP JUMP JUMPDEST PUSH1 0x0 PUSH8 0xFFFFFFFFFFFFFFFF DUP3 GT ISZERO PUSH2 0xB18 JUMPI PUSH2 0xB17 PUSH2 0x90A JUMP JUMPDEST JUMPDEST PUSH1 0x20 DUP3 MUL SWAP1 POP PUSH1 0x20 DUP2 ADD SWAP1 POP SWAP2 SWAP1 POP JUMP JUMPDEST PUSH1 0x0 PUSH2 0xB3C PUSH2 0xB37 DUP5 PUSH2 0xAFD JUMP JUMPDEST PUSH2 0x96A JUMP JUMPDEST SWAP1 POP DUP1 DUP4 DUP3 MSTORE PUSH1 0x20 DUP3 ADD SWAP1 POP PUSH1 0x20 DUP5 MUL DUP4 ADD DUP6 DUP2 GT ISZERO PUSH2 0xB5F JUMPI PUSH2 0xB5E PUSH2 0xA61 JUMP JUMPDEST JUMPDEST DUP4 JUMPDEST DUP2 DUP2 LT ISZERO PUSH2 0xB88 JUMPI DUP1 PUSH2 0xB74 DUP9 DUP3 PUSH2 0x657 JUMP JUMPDEST DUP5 MSTORE PUSH1 0x20 DUP5 ADD SWAP4 POP POP PUSH1 0x20 DUP2 ADD SWAP1 POP PUSH2 0xB61 JUMP JUMPDEST POP POP POP SWAP4 SWAP3 POP POP POP JUMP JUMPDEST PUSH1 0x0 DUP3 PUSH1 0x1F DUP4 ADD SLT PUSH2 0xBA7 JUMPI PUSH2 0xBA6 PUSH2 0x900 JUMP JUMPDEST JUMPDEST DUP2 CALLDATALOAD PUSH2 0xBB7 DUP5 DUP3 PUSH1 0x20 DUP7 ADD PUSH2 0xB29 JUMP JUMPDEST SWAP2 POP POP SWAP3 SWAP2 POP POP JUMP JUMPDEST PUSH1 0x0 DUP1 PUSH1 0x0 DUP1 PUSH1 0x0 PUSH1 0xA0 DUP7 DUP9 SUB SLT ISZERO PUSH2 0xBDC JUMPI PUSH2 0xBDB PUSH2 0x62C JUMP JUMPDEST JUMPDEST PUSH1 0x0 PUSH2 0xBEA DUP9 DUP3 DUP10 ADD PUSH2 0x8EB JUMP JUMPDEST SWAP6 POP POP PUSH1 0x20 PUSH2 0xBFB DUP9 DUP3 DUP10 ADD PUSH2 0x8EB JUMP JUMPDEST SWAP5 POP POP PUSH1 0x40 DUP7 ADD CALLDATALOAD PUSH8 0xFFFFFFFFFFFFFFFF DUP2 GT ISZERO PUSH2 0xC1C JUMPI PUSH2 0xC1B PUSH2 0x631 JUMP JUMPDEST JUMPDEST PUSH2 0xC28 DUP9 DUP3 DUP10 ADD PUSH2 0xA07 JUMP JUMPDEST SWAP4 POP POP PUSH1 0x60 DUP7 ADD CALLDATALOAD PUSH8 0xFFFFFFFFFFFFFFFF DUP2 GT ISZERO PUSH2 0xC49 JUMPI PUSH2 0xC48 PUSH2 0x631 JUMP JUMPDEST JUMPDEST PUSH2 0xC55 DUP9 DUP3 DUP10 ADD PUSH2 0xACF JUMP JUMPDEST SWAP3 POP POP PUSH1 0x80 DUP7 ADD CALLDATALOAD PUSH8 0xFFFFFFFFFFFFFFFF DUP2 GT ISZERO PUSH2 0xC76 JUMPI PUSH2 0xC75 PUSH2 0x631 JUMP JUMPDEST JUMPDEST PUSH2 0xC82 DUP9 DUP3 DUP10 ADD PUSH2 0xB92 JUMP JUMPDEST SWAP2 POP POP SWAP3 SWAP6 POP SWAP3 SWAP6 SWAP1 SWAP4 POP JUMP JUMPDEST PUSH2 0xC98 DUP2 PUSH2 0x6A8 JUMP JUMPDEST DUP3 MSTORE POP POP JUMP JUMPDEST PUSH1 0x0 DUP3 DUP3 MSTORE PUSH1 0x20 DUP3 ADD SWAP1 POP SWAP3 SWAP2 POP POP JUMP JUMPDEST PUSH1 0x0 PUSH2 0xCBA DUP3 PUSH2 0x6C1 JUMP JUMPDEST PUSH2 0xCC4 DUP2 DUP6 PUSH2 0xC9E JUMP JUMPDEST SWAP4 POP PUSH2 0xCD4 DUP2 DUP6 PUSH1 0x20 DUP7 ADD PUSH2 0x6DD JUMP JUMPDEST PUSH2 0xCDD DUP2 PUSH2 0x707 JUMP JUMPDEST DUP5 ADD SWAP2 POP POP SWAP3 SWAP2 POP POP JUMP JUMPDEST PUSH1 0x0 PUSH1 0xA0 DUP3 ADD SWAP1 POP PUSH2 0xCFD PUSH1 0x0 DUP4 ADD DUP9 PUSH2 0x874 JUMP JUMPDEST PUSH2 0xD0A PUSH1 0x20 DUP4 ADD DUP8 PUSH2 0xC8F JUMP JUMPDEST PUSH2 0xD17 PUSH1 0x40 DUP4 ADD DUP7 PUSH2 0xC8F JUMP JUMPDEST DUP2 DUP2 SUB PUSH1 0x60 DUP4 ADD MSTORE PUSH2 0xD29 DUP2 DUP6 PUSH2 0xCAF JUMP JUMPDEST SWAP1 POP PUSH2 0xD38 PUSH1 0x80 DUP4 ADD DUP5 PUSH2 0x874 JUMP JUMPDEST SWAP7 SWAP6 POP POP POP POP POP POP JUMP JUMPDEST PUSH32 0x4E487B7100000000000000000000000000000000000000000000000000000000 PUSH1 0x0 MSTORE PUSH1 0x32 PUSH1 0x4 MSTORE PUSH1 0x24 PUSH1 0x0 REVERT JUMPDEST PUSH32 0x4E487B7100000000000000000000000000000000000000000000000000000000 PUSH1 0x0 MSTORE PUSH1 0x22 PUSH1 0x4 MSTORE PUSH1 0x24 PUSH1 0x0 REVERT JUMPDEST PUSH1 0x0 PUSH1 0x2 DUP3 DIV SWAP1 POP PUSH1 0x1 DUP3 AND DUP1 PUSH2 0xDB8 JUMPI PUSH1 0x7F DUP3 AND SWAP2 POP JUMPDEST PUSH1 0x20 DUP3 LT DUP2 SUB PUSH2 0xDCB JUMPI PUSH2 0xDCA PUSH2 0xD71 JUMP JUMPDEST JUMPDEST POP SWAP2 SWAP1 POP JUMP JUMPDEST PUSH1 0x0 DUP3 DUP3 MSTORE PUSH1 0x20 DUP3 ADD SWAP1 POP SWAP3 SWAP2 POP POP JUMP JUMPDEST PUSH32 0x4163636F756E747320616E642062616C616E636573206C656E677468206D6973 PUSH1 0x0 DUP3 ADD MSTORE PUSH32 0x6D61746368000000000000000000000000000000000000000000000000000000 PUSH1 0x20 DUP3 ADD MSTORE POP JUMP JUMPDEST PUSH1 0x0 PUSH2 0xE3E PUSH1 0x25 DUP4 PUSH2 0xDD1 JUMP JUMPDEST SWAP2 POP PUSH2 0xE49 DUP3 PUSH2 0xDE2 JUMP JUMPDEST PUSH1 0x40 DUP3 ADD SWAP1 POP SWAP2 SWAP1 POP JUMP JUMPDEST PUSH1 0x0 PUSH1 0x20 DUP3 ADD SWAP1 POP DUP2 DUP2 SUB PUSH1 0x0 DUP4 ADD MSTORE PUSH2 0xE6D DUP2 PUSH2 0xE31 JUMP JUMPDEST SWAP1 POP SWAP2 SWAP1 POP JUMP JUMPDEST PUSH1 0x0 DUP2 SWAP1 POP DUP2 PUSH1 0x0 MSTORE PUSH1 0x20 PUSH1 0x0 KECCAK256 SWAP1 POP SWAP2 SWAP1 POP JUMP JUMPDEST PUSH1 0x0 PUSH1 0x20 PUSH1 0x1F DUP4 ADD DIV SWAP1 POP SWAP2 SWAP1 POP JUMP JUMPDEST PUSH1 0x0 DUP3 DUP3 SHL SWAP1 POP SWAP3 SWAP2 POP POP JUMP JUMPDEST PUSH1 0x0 PUSH1 0x8 DUP4 MUL PUSH2 0xED6 PUSH32 0xFFFFFFFFFFFFFFFFFFFFFFFFFFFFFFFFFFFFFFFFFFFFFFFFFFFFFFFFFFFFFFFF DUP3 PUSH2 0xE99 JUMP JUMPDEST PUSH2 0xEE0 DUP7 DUP4 PUSH2 0xE99 JUMP JUMPDEST SWAP6 POP DUP1 NOT DUP5 AND SWAP4 POP DUP1 DUP7 AND DUP5 OR SWAP3 POP POP POP SWAP4 SWAP3 POP POP POP JUMP JUMPDEST PUSH1 0x0 DUP2 SWAP1 POP SWAP2 SWAP1 POP JUMP JUMPDEST PUSH1 0x0 PUSH2 0xF1D PUSH2 0xF18 PUSH2 0xF13 DUP5 PUSH2 0x636 JUMP JUMPDEST PUSH2 0xEF8 JUMP JUMPDEST PUSH2 0x636 JUMP JUMPDEST SWAP1 POP SWAP2 SWAP1 POP JUMP JUMPDEST PUSH1 0x0 DUP2 SWAP1 POP SWAP2 SWAP1 POP JUMP JUMPDEST PUSH2 0xF37 DUP4 PUSH2 0xF02 JUMP JUMPDEST PUSH2 0xF4B PUSH2 0xF43 DUP3 PUSH2 0xF24 JUMP JUMPDEST DUP5 DUP5 SLOAD PUSH2 0xEA6 JUMP JUMPDEST DUP3 SSTORE POP POP POP POP JUMP JUMPDEST PUSH1 0x0 SWAP1 JUMP JUMPDEST PUSH2 0xF60 PUSH2 0xF53 JUMP JUMPDEST PUSH2 0xF6B DUP2 DUP5 DUP5 PUSH2 0xF2E JUMP JUMPDEST POP POP POP JUMP JUMPDEST JUMPDEST DUP2 DUP2 LT ISZERO PUSH2 0xF8F JUMPI PUSH2 0xF84 PUSH1 0x0 DUP3 PUSH2 0xF58 JUMP JUMPDEST PUSH1 0x1 DUP2 ADD SWAP1 POP PUSH2 0xF71 JUMP JUMPDEST POP POP JUMP JUMPDEST PUSH1 0x1F DUP3 GT ISZERO PUSH2 0xFD4 JUMPI PUSH2 0xFA5 DUP2 PUSH2 0xE74 JUMP JUMPDEST PUSH2 0xFAE DUP5 PUSH2 0xE89 JUMP JUMPDEST DUP2 ADD PUSH1 0x20 DUP6 LT ISZERO PUSH2 0xFBD JUMPI DUP2 SWAP1 POP JUMPDEST PUSH2 0xFD1 PUSH2 0xFC9 DUP6 PUSH2 0xE89 JUMP JUMPDEST DUP4 ADD DUP3 PUSH2 0xF70 JUMP JUMPDEST POP POP JUMPDEST POP POP POP JUMP JUMPDEST PUSH1 0x0 DUP3 DUP3 SHR SWAP1 POP SWAP3 SWAP2 POP POP JUMP JUMPDEST PUSH1 0x0 PUSH2 0xFF7 PUSH1 0x0 NOT DUP5 PUSH1 0x8 MUL PUSH2 0xFD9 JUMP JUMPDEST NOT DUP1 DUP4 AND SWAP2 POP POP SWAP3 SWAP2 POP POP JUMP JUMPDEST PUSH1 0x0 PUSH2 0x1010 DUP4 DUP4 PUSH2 0xFE6 JUMP JUMPDEST SWAP2 POP DUP3 PUSH1 0x2 MUL DUP3 OR SWAP1 POP SWAP3 SWAP2 POP POP JUMP JUMPDEST PUSH2 0x1029 DUP3 PUSH2 0x6C1 JUMP JUMPDEST PUSH8 0xFFFFFFFFFFFFFFFF DUP2 GT ISZERO PUSH2 0x1042 JUMPI PUSH2 0x1041 PUSH2 0x90A JUMP JUMPDEST JUMPDEST PUSH2 0x104C DUP3 SLOAD PUSH2 0xDA0 JUMP JUMPDEST PUSH2 0x1057 DUP3 DUP3 DUP6 PUSH2 0xF93 JUMP JUMPDEST PUSH1 0x0 PUSH1 0x20 SWAP1 POP PUSH1 0x1F DUP4 GT PUSH1 0x1 DUP2 EQ PUSH2 0x108A JUMPI PUSH1 0x0 DUP5 ISZERO PUSH2 0x1078 JUMPI DUP3 DUP8 ADD MLOAD SWAP1 POP JUMPDEST PUSH2 0x1082 DUP6 DUP3 PUSH2 0x1004 JUMP JUMPDEST DUP7 SSTORE POP PUSH2 0x10EA JUMP JUMPDEST PUSH1 0x1F NOT DUP5 AND PUSH2 0x1098 DUP7 PUSH2 0xE74 JUMP JUMPDEST PUSH1 0x0 JUMPDEST DUP3 DUP2 LT ISZERO PUSH2 0x10C0 JUMPI DUP5 DUP10 ADD MLOAD DUP3 SSTORE PUSH1 0x1 DUP3 ADD SWAP2 POP PUSH1 0x20 DUP6 ADD SWAP5 POP PUSH1 0x20 DUP2 ADD SWAP1 POP PUSH2 0x109B JUMP JUMPDEST DUP7 DUP4 LT ISZERO PUSH2 0x10DD JUMPI DUP5 DUP10 ADD MLOAD PUSH2 0x10D9 PUSH1 0x1F DUP10 AND DUP3 PUSH2 0xFE6 JUMP JUMPDEST DUP4 SSTORE POP JUMPDEST PUSH1 0x1 PUSH1 0x2 DUP9 MUL ADD DUP9 SSTORE POP POP POP JUMPDEST POP POP POP POP POP POP JUMP JUMPDEST PUSH1 0x0 PUSH1 0x80 DUP3 ADD SWAP1 POP PUSH2 0x1107 PUSH1 0x0 DUP4 ADD DUP8 PUSH2 0x874 JUMP JUMPDEST PUSH2 0x1114 PUSH1 0x20 DUP4 ADD DUP7 PUSH2 0xC8F JUMP JUMPDEST DUP2 DUP2 SUB PUSH1 0x40 DUP4 ADD MSTORE PUSH2 0x1126 DUP2 DUP6 PUSH2 0xCAF JUMP JUMPDEST SWAP1 POP PUSH2 0x1135 PUSH1 0x60 DUP4 ADD DUP5 PUSH2 0x874 JUMP JUMPDEST SWAP6 SWAP5 POP POP POP POP POP JUMP INVALID LOG2 PUSH5 0x6970667358 0x22 SLT KECCAK256 NOT PUSH2 0x4768 PUSH7 0x93F4AC81EDF555 0x2D 0xCD REVERT 0xAC SUB DUP13 0xB9 EXTCODECOPY CHAINID CALLVALUE DUP10 CALLDATACOPY 0x2C 0xF6 SSTORE PUSH25 0x81DEA41E64736F6C6343000818003300000000000000000000 "
        },
        "methodIdentifiers": {
          "CHALLENGE_PERIOD()": "c3a079ed",
          "balances(address)": "27e235e3",
          "blocks(uint256)": "f25b3f99",
          "getBalance(address)": "f8b2cb4f",
          "getBlock(uint256)": "04c07569",
          "getBlockCount()": "cc0bd62e",
          "isChallenged(uint256)": "baaaeda7",
          "submitBlock(bytes32,bytes32,bytes,address[],uint256[])": "ef1a3b56"
        }
      }
    }
  }
}