{
  "_format": "hh-sol-artifact-1",
  "contractName": "OptimisticRollup",
  "sourceName": "contracts/Rollup.sol",
  "abi": [
    {
      "anonymous": false,
      "inputs": [
        {
          "indexed": false,
          "internalType": "uint256",
          "name": "blockNumber",
          "type": "uint256"
        },
        {
          "indexed": false,
          "internalType": "address",
          "name": "challenger",
          "type": "address"
        }
      ],
      "name": "BlockChallenged",
      "type": "event"
    },
    {
      "anonymous": false,
      "inputs": [
        {
          "indexed": false,
          "internalType": "uint256",
          "name": "blockNumber",
          "type": "uint256"
        },
        {
          "indexed": false,
          "internalType": "bytes32",
          "name": "stateRoot",
          "type": "bytes32"
        },
        {
          "indexed": false,
          "internalType": "bytes",
          "name": "data",
          "type": "bytes"
        },
        {
          "indexed": false,
          "internalType": "uint256",
          "name": "timestamp",
          "type": "uint256"
        }
      ],
      "name": "BlockSubmitted",
      "type": "event"
    },
    {
      "inputs": [],
      "name": "CHALLENGE_PERIOD",
      "outputs": [
        {
          "internalType": "uint256",
          "name": "",
          "type": "uint256"
        }
      ],
      "stateMutability": "view",
      "type": "function"
    },
    {
      "inputs": [
        {
          "internalType": "uint256",
          "name": "",
          "type": "uint256"
        }
      ],
      "name": "blocks",
      "outputs": [
        {
          "internalType": "uint256",
          "name": "blockNumber",
          "type": "uint256"
        },
        {
          "internalType": "bytes32",
          "name": "previousBlockHash",
          "type": "bytes32"
        },
        {
          "internalType": "bytes32",
          "name": "stateRoot",
          "type": "bytes32"
        },
        {
          "internalType": "bytes",
          "name": "data",
          "type": "bytes"
        },
        {
          "internalType": "uint256",
          "name": "timestamp",
          "type": "uint256"
        }
      ],
      "stateMutability": "view",
      "type": "function"
    },
    {
      "inputs": [
        {
          "internalType": "uint256",
          "name": "blockNumber",
          "type": "uint256"
        },
        {
          "internalType": "bytes32",
          "name": "correctStateRoot",
          "type": "bytes32"
        },
        {
          "internalType": "bytes",
          "name": "proofData",
          "type": "bytes"
        }
      ],
      "name": "challengeBlock",
      "outputs": [],
      "stateMutability": "nonpayable",
      "type": "function"
    },
    {
      "inputs": [
        {
          "internalType": "uint256",
          "name": "blockNumber",
          "type": "uint256"
        }
      ],
      "name": "getBlock",
      "outputs": [
        {
          "components": [
            {
              "internalType": "uint256",
              "name": "blockNumber",
              "type": "uint256"
            },
            {
              "internalType": "bytes32",
              "name": "previousBlockHash",
              "type": "bytes32"
            },
            {
              "internalType": "bytes32",
              "name": "stateRoot",
              "type": "bytes32"
            },
            {
              "internalType": "bytes",
              "name": "data",
              "type": "bytes"
            },
            {
              "internalType": "uint256",
              "name": "timestamp",
              "type": "uint256"
            }
          ],
          "internalType": "struct OptimisticRollup.RollupBlock",
          "name": "",
          "type": "tuple"
        }
      ],
      "stateMutability": "view",
      "type": "function"
    },
    {
      "inputs": [
        {
          "internalType": "uint256",
          "name": "",
          "type": "uint256"
        }
      ],
      "name": "isChallenged",
      "outputs": [
        {
          "internalType": "bool",
          "name": "",
          "type": "bool"
        }
      ],
      "stateMutability": "view",
      "type": "function"
    },
    {
      "inputs": [
        {
          "internalType": "bytes32",
          "name": "previousBlockHash",
          "type": "bytes32"
        },
        {
          "internalType": "bytes32",
          "name": "stateRoot",
          "type": "bytes32"
        },
        {
          "internalType": "bytes",
          "name": "data",
          "type": "bytes"
        }
      ],
      "name": "submitBlock",
      "outputs": [],
      "stateMutability": "nonpayable",
      "type": "function"
    }
  ],
  "bytecode": "0x608060405234801561001057600080fd5b50611222806100206000396000f3fe608060405234801561001057600080fd5b50600436106100625760003560e01c806304c0756914610067578063ac2e976f14610097578063b600bb75146100b3578063baaaeda7146100cf578063c3a079ed146100ff578063f25b3f991461011d575b600080fd5b610081600480360381019061007c9190610736565b610151565b60405161008e9190610891565b60405180910390f35b6100b160048036038101906100ac9190610a14565b610247565b005b6100cd60048036038101906100c89190610a83565b6104de565b005b6100e960048036038101906100e49190610736565b6105c2565b6040516100f69190610b0d565b60405180910390f35b6101076105e2565b6040516101149190610b37565b60405180910390f35b61013760048036038101906101329190610736565b6105e9565b604051610148959493929190610bab565b60405180910390f35b6101596106b7565b6000828154811061016d5761016c610c05565b5b90600052602060002090600502016040518060a00160405290816000820154815260200160018201548152602001600282015481526020016003820180546101b490610c63565b80601f01602080910402602001604051908101604052809291908181526020018280546101e090610c63565b801561022d5780601f106102025761010080835404028352916020019161022d565b820191906000526020600020905b81548152906001019060200180831161021057829003601f168201915b505050505081526020016004820154815250509050919050565b600080549050831061028e576040517f08c379a000000000000000000000000000000000000000000000000000000000815260040161028590610cf1565b60405180910390fd5b6001600084815260200190815260200160002060009054906101000a900460ff16156102ef576040517f08c379a00000000000000000000000000000000000000000000000000000000081526004016102e690610d5d565b60405180910390fd5b600080848154811061030457610303610c05565b5b90600052602060002090600502016040518060a001604052908160008201548152602001600182015481526020016002820154815260200160038201805461034b90610c63565b80601f016020809104026020016040519081016040528092919081815260200182805461037790610c63565b80156103c45780601f10610399576101008083540402835291602001916103c4565b820191906000526020600020905b8154815290600101906020018083116103a757829003601f168201915b50505050508152602001600482015481525050905062093a8081608001516103ec9190610dac565b42111561042e576040517f08c379a000000000000000000000000000000000000000000000000000000000815260040161042590610e2c565b60405180910390fd5b82816040015103610474576040517f08c379a000000000000000000000000000000000000000000000000000000000815260040161046b90610e98565b60405180910390fd5b600180600086815260200190815260200160002060006101000a81548160ff0219169083151502179055507f0eaf8ccd09772eddbc233e5083c3ed9a3917a97f21a2824f1b7cbb9e4fc29a3484336040516104d0929190610ef9565b60405180910390a150505050565b600080805490509050600042905060006040518060a00160405280848152602001878152602001868152602001858152602001838152509080600181540180825580915050600190039060005260206000209060050201600090919091909150600082015181600001556020820151816001015560408201518160020155606082015181600301908161057191906110ce565b506080820151816004015550507fcb48bdd94365a15068b6d26cd76700047b4c6451fabe79ad099dbace43be11e2828585846040516105b394939291906111a0565b60405180910390a15050505050565b60016020528060005260406000206000915054906101000a900460ff1681565b62093a8081565b600081815481106105f957600080fd5b906000526020600020906005020160009150905080600001549080600101549080600201549080600301805461062e90610c63565b80601f016020809104026020016040519081016040528092919081815260200182805461065a90610c63565b80156106a75780601f1061067c576101008083540402835291602001916106a7565b820191906000526020600020905b81548152906001019060200180831161068a57829003601f168201915b5050505050908060040154905085565b6040518060a0016040528060008152602001600080191681526020016000801916815260200160608152602001600081525090565b6000604051905090565b600080fd5b600080fd5b6000819050919050565b61071381610700565b811461071e57600080fd5b50565b6000813590506107308161070a565b92915050565b60006020828403121561074c5761074b6106f6565b5b600061075a84828501610721565b91505092915050565b61076c81610700565b82525050565b6000819050919050565b61078581610772565b82525050565b600081519050919050565b600082825260208201905092915050565b60005b838110156107c55780820151818401526020810190506107aa565b60008484015250505050565b6000601f19601f8301169050919050565b60006107ed8261078b565b6107f78185610796565b93506108078185602086016107a7565b610810816107d1565b840191505092915050565b600060a0830160008301516108336000860182610763565b506020830151610846602086018261077c565b506040830151610859604086018261077c565b506060830151848203606086015261087182826107e2565b91505060808301516108866080860182610763565b508091505092915050565b600060208201905081810360008301526108ab818461081b565b905092915050565b6108bc81610772565b81146108c757600080fd5b50565b6000813590506108d9816108b3565b92915050565b600080fd5b600080fd5b7f4e487b7100000000000000000000000000000000000000000000000000000000600052604160045260246000fd5b610921826107d1565b810181811067ffffffffffffffff821117156109405761093f6108e9565b5b80604052505050565b60006109536106ec565b905061095f8282610918565b919050565b600067ffffffffffffffff82111561097f5761097e6108e9565b5b610988826107d1565b9050602081019050919050565b82818337600083830152505050565b60006109b76109b284610964565b610949565b9050828152602081018484840111156109d3576109d26108e4565b5b6109de848285610995565b509392505050565b600082601f8301126109fb576109fa6108df565b5b8135610a0b8482602086016109a4565b91505092915050565b600080600060608486031215610a2d57610a2c6106f6565b5b6000610a3b86828701610721565b9350506020610a4c868287016108ca565b925050604084013567ffffffffffffffff811115610a6d57610a6c6106fb565b5b610a79868287016109e6565b9150509250925092565b600080600060608486031215610a9c57610a9b6106f6565b5b6000610aaa868287016108ca565b9350506020610abb868287016108ca565b925050604084013567ffffffffffffffff811115610adc57610adb6106fb565b5b610ae8868287016109e6565b9150509250925092565b60008115159050919050565b610b0781610af2565b82525050565b6000602082019050610b226000830184610afe565b92915050565b610b3181610700565b82525050565b6000602082019050610b4c6000830184610b28565b92915050565b610b5b81610772565b82525050565b600082825260208201905092915050565b6000610b7d8261078b565b610b878185610b61565b9350610b978185602086016107a7565b610ba0816107d1565b840191505092915050565b600060a082019050610bc06000830188610b28565b610bcd6020830187610b52565b610bda6040830186610b52565b8181036060830152610bec8185610b72565b9050610bfb6080830184610b28565b9695505050505050565b7f4e487b7100000000000000000000000000000000000000000000000000000000600052603260045260246000fd5b7f4e487b7100000000000000000000000000000000000000000000000000000000600052602260045260246000fd5b60006002820490506001821680610c7b57607f821691505b602082108103610c8e57610c8d610c34565b5b50919050565b600082825260208201905092915050565b7f496e76616c696420626c6f636b206e756d626572000000000000000000000000600082015250565b6000610cdb601483610c94565b9150610ce682610ca5565b602082019050919050565b60006020820190508181036000830152610d0a81610cce565b9050919050565b7f426c6f636b20616c7265616479206368616c6c656e6765640000000000000000600082015250565b6000610d47601883610c94565b9150610d5282610d11565b602082019050919050565b60006020820190508181036000830152610d7681610d3a565b9050919050565b7f4e487b7100000000000000000000000000000000000000000000000000000000600052601160045260246000fd5b6000610db782610700565b9150610dc283610700565b9250828201905080821115610dda57610dd9610d7d565b5b92915050565b7f4368616c6c656e676520706572696f642068617320656e646564000000000000600082015250565b6000610e16601a83610c94565b9150610e2182610de0565b602082019050919050565b60006020820190508181036000830152610e4581610e09565b9050919050565b7f426c6f636b20697320636f727265637400000000000000000000000000000000600082015250565b6000610e82601083610c94565b9150610e8d82610e4c565b602082019050919050565b60006020820190508181036000830152610eb181610e75565b9050919050565b600073ffffffffffffffffffffffffffffffffffffffff82169050919050565b6000610ee382610eb8565b9050919050565b610ef381610ed8565b82525050565b6000604082019050610f0e6000830185610b28565b610f1b6020830184610eea565b9392505050565b60008190508160005260206000209050919050565b60006020601f8301049050919050565b600082821b905092915050565b600060088302610f847fffffffffffffffffffffffffffffffffffffffffffffffffffffffffffffffff82610f47565b610f8e8683610f47565b95508019841693508086168417925050509392505050565b6000819050919050565b6000610fcb610fc6610fc184610700565b610fa6565b610700565b9050919050565b6000819050919050565b610fe583610fb0565b610ff9610ff182610fd2565b848454610f54565b825550505050565b600090565b61100e611001565b611019818484610fdc565b505050565b5b8181101561103d57611032600082611006565b60018101905061101f565b5050565b601f8211156110825761105381610f22565b61105c84610f37565b8101602085101561106b578190505b61107f61107785610f37565b83018261101e565b50505b505050565b600082821c905092915050565b60006110a560001984600802611087565b1980831691505092915050565b60006110be8383611094565b9150826002028217905092915050565b6110d78261078b565b67ffffffffffffffff8111156110f0576110ef6108e9565b5b6110fa8254610c63565b611105828285611041565b600060209050601f8311600181146111385760008415611126578287015190505b61113085826110b2565b865550611198565b601f19841661114686610f22565b60005b8281101561116e57848901518255600182019150602085019450602081019050611149565b8683101561118b5784890151611187601f891682611094565b8355505b6001600288020188555050505b505050505050565b60006080820190506111b56000830187610b28565b6111c26020830186610b52565b81810360408301526111d48185610b72565b90506111e36060830184610b28565b9594505050505056fea2646970667358221220c7287f9fdd8c389035ef846af51be82c77939db39e4a8f123fc540d9fafdf6b464736f6c63430008180033",
  "linkReferences": {},
  "deployedLinkReferences": {}
}