{
  "_format": "hh-sol-artifact-1",
  "contractName": "OptimisticRollup",
  "sourceName": "contracts/rollup.sol",
  "abi": [
    {
      "inputs": [],
      "stateMutability": "nonpayable",
      "type": "constructor"
    },
    {
      "anonymous": false,
      "inputs": [
        {
          "indexed": false,
          "internalType": "uint256",
          "name": "blockNumber",
          "type": "uint256"
        },
        {
          "indexed": false,
          "internalType": "address",
          "name": "challenger",
          "type": "address"
        }
      ],
      "name": "BlockChallenged",
      "type": "event"
    },
    {
      "anonymous": false,
      "inputs": [
        {
          "indexed": false,
          "internalType": "uint256",
          "name": "blockNumber",
          "type": "uint256"
        },
        {
          "indexed": false,
          "internalType": "bytes32",
          "name": "stateRoot",
          "type": "bytes32"
        },
        {
          "indexed": false,
          "internalType": "bytes",
          "name": "data",
          "type": "bytes"
        },
        {
          "indexed": false,
          "internalType": "uint256",
          "name": "timestamp",
          "type": "uint256"
        }
      ],
      "name": "BlockSubmitted",
      "type": "event"
    },
    {
      "inputs": [],
      "name": "CHALLENGE_PERIOD",
      "outputs": [
        {
          "internalType": "uint256",
          "name": "",
          "type": "uint256"
        }
      ],
      "stateMutability": "view",
      "type": "function"
    },
    {
      "inputs": [
        {
          "internalType": "address",
          "name": "",
          "type": "address"
        }
      ],
      "name": "balances",
      "outputs": [
        {
          "internalType": "uint256",
          "name": "",
          "type": "uint256"
        }
      ],
      "stateMutability": "view",
      "type": "function"
    },
    {
      "inputs": [
        {
          "internalType": "uint256",
          "name": "",
          "type": "uint256"
        }
      ],
      "name": "blocks",
      "outputs": [
        {
          "internalType": "uint256",
          "name": "blockNumber",
          "type": "uint256"
        },
        {
          "internalType": "bytes32",
          "name": "previousBlockHash",
          "type": "bytes32"
        },
        {
          "internalType": "bytes32",
          "name": "stateRoot",
          "type": "bytes32"
        },
        {
          "internalType": "bytes",
          "name": "data",
          "type": "bytes"
        },
        {
          "internalType": "uint256",
          "name": "timestamp",
          "type": "uint256"
        }
      ],
      "stateMutability": "view",
      "type": "function"
    },
    {
      "inputs": [
        {
          "internalType": "address",
          "name": "account",
          "type": "address"
        }
      ],
      "name": "getBalance",
      "outputs": [
        {
          "internalType": "uint256",
          "name": "",
          "type": "uint256"
        }
      ],
      "stateMutability": "view",
      "type": "function"
    },
    {
      "inputs": [
        {
          "internalType": "uint256",
          "name": "blockNumber",
          "type": "uint256"
        }
      ],
      "name": "getBlock",
      "outputs": [
        {
          "components": [
            {
              "internalType": "uint256",
              "name": "blockNumber",
              "type": "uint256"
            },
            {
              "internalType": "bytes32",
              "name": "previousBlockHash",
              "type": "bytes32"
            },
            {
              "internalType": "bytes32",
              "name": "stateRoot",
              "type": "bytes32"
            },
            {
              "internalType": "bytes",
              "name": "data",
              "type": "bytes"
            },
            {
              "internalType": "uint256",
              "name": "timestamp",
              "type": "uint256"
            }
          ],
          "internalType": "struct OptimisticRollup.RollupBlock",
          "name": "",
          "type": "tuple"
        }
      ],
      "stateMutability": "view",
      "type": "function"
    },
    {
      "inputs": [],
      "name": "getBlockCount",
      "outputs": [
        {
          "internalType": "uint256",
          "name": "",
          "type": "uint256"
        }
      ],
      "stateMutability": "view",
      "type": "function"
    },
    {
      "inputs": [
        {
          "internalType": "uint256",
          "name": "",
          "type": "uint256"
        }
      ],
      "name": "isChallenged",
      "outputs": [
        {
          "internalType": "bool",
          "name": "",
          "type": "bool"
        }
      ],
      "stateMutability": "view",
      "type": "function"
    },
    {
      "inputs": [
        {
          "internalType": "bytes32",
          "name": "previousBlockHash",
          "type": "bytes32"
        },
        {
          "internalType": "bytes32",
          "name": "stateRoot",
          "type": "bytes32"
        },
        {
          "internalType": "bytes",
          "name": "data",
          "type": "bytes"
        },
        {
          "internalType": "address[]",
          "name": "accounts",
          "type": "address[]"
        },
        {
          "internalType": "uint256[]",
          "name": "newBalances",
          "type": "uint256[]"
        }
      ],
      "name": "submitBlock",
      "outputs": [],
      "stateMutability": "nonpayable",
      "type": "function"
    }
  ],
  "bytecode": "0x60806040523480156200001157600080fd5b5060007fdeadbeefdeadbeefdeadbeefdeadbeefdeadbeefdeadbeefdeadbeefdeadbeef60001b905060006040518060400160405280600481526020017fdeadbeef00000000000000000000000000000000000000000000000000000000815250905060006040518060a00160405280600081526020016000801b81526020018481526020018381526020014281525090806001815401808255809150506001900390600052602060002090600502016000909190919091506000820151816000015560208201518160010155604082015181600201556060820151816003019081620000ff9190620003ce565b506080820151816004015550507fcb48bdd94365a15068b6d26cd76700047b4c6451fabe79ad099dbace43be11e26000838342604051620001449493929190620005b3565b60405180910390a1505062000607565b600081519050919050565b7f4e487b7100000000000000000000000000000000000000000000000000000000600052604160045260246000fd5b7f4e487b7100000000000000000000000000000000000000000000000000000000600052602260045260246000fd5b60006002820490506001821680620001d657607f821691505b602082108103620001ec57620001eb6200018e565b5b50919050565b60008190508160005260206000209050919050565b60006020601f8301049050919050565b600082821b905092915050565b600060088302620002567fffffffffffffffffffffffffffffffffffffffffffffffffffffffffffffffff8262000217565b62000262868362000217565b95508019841693508086168417925050509392505050565b6000819050919050565b6000819050919050565b6000620002af620002a9620002a3846200027a565b62000284565b6200027a565b9050919050565b6000819050919050565b620002cb836200028e565b620002e3620002da82620002b6565b84845462000224565b825550505050565b600090565b620002fa620002eb565b62000307818484620002c0565b505050565b5b818110156200032f5762000323600082620002f0565b6001810190506200030d565b5050565b601f8211156200037e576200034881620001f2565b620003538462000207565b8101602085101562000363578190505b6200037b620003728562000207565b8301826200030c565b50505b505050565b600082821c905092915050565b6000620003a36000198460080262000383565b1980831691505092915050565b6000620003be838362000390565b9150826002028217905092915050565b620003d98262000154565b67ffffffffffffffff811115620003f557620003f46200015f565b5b620004018254620001bd565b6200040e82828562000333565b600060209050601f83116001811462000446576000841562000431578287015190505b6200043d8582620003b0565b865550620004ad565b601f1984166200045686620001f2565b60005b82811015620004805784890151825560018201915060208501945060208101905062000459565b86831015620004a057848901516200049c601f89168262000390565b8355505b6001600288020188555050505b505050505050565b6000819050919050565b6000620004e0620004da620004d484620004b5565b62000284565b6200027a565b9050919050565b620004f281620004bf565b82525050565b6000819050919050565b6200050d81620004f8565b82525050565b600082825260208201905092915050565b60005b838110156200054457808201518184015260208101905062000527565b60008484015250505050565b6000601f19601f8301169050919050565b60006200056e8262000154565b6200057a818562000513565b93506200058c81856020860162000524565b620005978162000550565b840191505092915050565b620005ad816200027a565b82525050565b6000608082019050620005ca6000830187620004e7565b620005d9602083018662000502565b8181036040830152620005ed818562000561565b9050620005fe6060830184620005a2565b95945050505050565b61117480620006176000396000f3fe608060405234801561001057600080fd5b50600436106100885760003560e01c8063cc0bd62e1161005b578063cc0bd62e1461013b578063ef1a3b5614610159578063f25b3f9914610175578063f8b2cb4f146101a957610088565b806304c075691461008d57806327e235e3146100bd578063baaaeda7146100ed578063c3a079ed1461011d575b600080fd5b6100a760048036038101906100a2919061066c565b6101d9565b6040516100b491906107c7565b60405180910390f35b6100d760048036038101906100d29190610847565b6102cf565b6040516100e49190610883565b60405180910390f35b6101076004803603810190610102919061066c565b6102e7565b60405161011491906108b9565b60405180910390f35b610125610307565b6040516101329190610883565b60405180910390f35b61014361030e565b6040516101509190610883565b60405180910390f35b610173600480360381019061016e9190610bc0565b61031a565b005b61018f600480360381019061018a919061066c565b6104d6565b6040516101a0959493929190610ce8565b60405180910390f35b6101c360048036038101906101be9190610847565b6105a4565b6040516101d09190610883565b60405180910390f35b6101e16105ed565b600082815481106101f5576101f4610d42565b5b90600052602060002090600502016040518060a001604052908160008201548152602001600182015481526020016002820154815260200160038201805461023c90610da0565b80601f016020809104026020016040519081016040528092919081815260200182805461026890610da0565b80156102b55780601f1061028a576101008083540402835291602001916102b5565b820191906000526020600020905b81548152906001019060200180831161029857829003601f168201915b505050505081526020016004820154815250509050919050565b60026020528060005260406000206000915090505481565b60016020528060005260406000206000915054906101000a900460ff1681565b62093a8081565b60008080549050905090565b805182511461035e576040517f08c379a000000000000000000000000000000000000000000000000000000000815260040161035590610e54565b60405180910390fd5b600080805490509050600042905060005b84518110156103fd5783818151811061038b5761038a610d42565b5b6020026020010151600260008784815181106103aa576103a9610d42565b5b602002602001015173ffffffffffffffffffffffffffffffffffffffff1673ffffffffffffffffffffffffffffffffffffffff16815260200190815260200160002081905550808060010191505061036f565b5060006040518060a0016040528084815260200189815260200188815260200187815260200183815250908060018154018082558091505060019003906000526020600020906005020160009091909190915060008201518160000155602082015181600101556040820151816002015560608201518160030190816104839190611020565b506080820151816004015550507fcb48bdd94365a15068b6d26cd76700047b4c6451fabe79ad099dbace43be11e2828787846040516104c594939291906110f2565b60405180910390a150505050505050565b600081815481106104e657600080fd5b906000526020600020906005020160009150905080600001549080600101549080600201549080600301805461051b90610da0565b80601f016020809104026020016040519081016040528092919081815260200182805461054790610da0565b80156105945780601f1061056957610100808354040283529160200191610594565b820191906000526020600020905b81548152906001019060200180831161057757829003601f168201915b5050505050908060040154905085565b6000600260008373ffffffffffffffffffffffffffffffffffffffff1673ffffffffffffffffffffffffffffffffffffffff168152602001908152602001600020549050919050565b6040518060a0016040528060008152602001600080191681526020016000801916815260200160608152602001600081525090565b6000604051905090565b600080fd5b600080fd5b6000819050919050565b61064981610636565b811461065457600080fd5b50565b60008135905061066681610640565b92915050565b6000602082840312156106825761068161062c565b5b600061069084828501610657565b91505092915050565b6106a281610636565b82525050565b6000819050919050565b6106bb816106a8565b82525050565b600081519050919050565b600082825260208201905092915050565b60005b838110156106fb5780820151818401526020810190506106e0565b60008484015250505050565b6000601f19601f8301169050919050565b6000610723826106c1565b61072d81856106cc565b935061073d8185602086016106dd565b61074681610707565b840191505092915050565b600060a0830160008301516107696000860182610699565b50602083015161077c60208601826106b2565b50604083015161078f60408601826106b2565b50606083015184820360608601526107a78282610718565b91505060808301516107bc6080860182610699565b508091505092915050565b600060208201905081810360008301526107e18184610751565b905092915050565b600073ffffffffffffffffffffffffffffffffffffffff82169050919050565b6000610814826107e9565b9050919050565b61082481610809565b811461082f57600080fd5b50565b6000813590506108418161081b565b92915050565b60006020828403121561085d5761085c61062c565b5b600061086b84828501610832565b91505092915050565b61087d81610636565b82525050565b60006020820190506108986000830184610874565b92915050565b60008115159050919050565b6108b38161089e565b82525050565b60006020820190506108ce60008301846108aa565b92915050565b6108dd816106a8565b81146108e857600080fd5b50565b6000813590506108fa816108d4565b92915050565b600080fd5b600080fd5b7f4e487b7100000000000000000000000000000000000000000000000000000000600052604160045260246000fd5b61094282610707565b810181811067ffffffffffffffff821117156109615761096061090a565b5b80604052505050565b6000610974610622565b90506109808282610939565b919050565b600067ffffffffffffffff8211156109a05761099f61090a565b5b6109a982610707565b9050602081019050919050565b82818337600083830152505050565b60006109d86109d384610985565b61096a565b9050828152602081018484840111156109f4576109f3610905565b5b6109ff8482856109b6565b509392505050565b600082601f830112610a1c57610a1b610900565b5b8135610a2c8482602086016109c5565b91505092915050565b600067ffffffffffffffff821115610a5057610a4f61090a565b5b602082029050602081019050919050565b600080fd5b6000610a79610a7484610a35565b61096a565b90508083825260208201905060208402830185811115610a9c57610a9b610a61565b5b835b81811015610ac55780610ab18882610832565b845260208401935050602081019050610a9e565b5050509392505050565b600082601f830112610ae457610ae3610900565b5b8135610af4848260208601610a66565b91505092915050565b600067ffffffffffffffff821115610b1857610b1761090a565b5b602082029050602081019050919050565b6000610b3c610b3784610afd565b61096a565b90508083825260208201905060208402830185811115610b5f57610b5e610a61565b5b835b81811015610b885780610b748882610657565b845260208401935050602081019050610b61565b5050509392505050565b600082601f830112610ba757610ba6610900565b5b8135610bb7848260208601610b29565b91505092915050565b600080600080600060a08688031215610bdc57610bdb61062c565b5b6000610bea888289016108eb565b9550506020610bfb888289016108eb565b945050604086013567ffffffffffffffff811115610c1c57610c1b610631565b5b610c2888828901610a07565b935050606086013567ffffffffffffffff811115610c4957610c48610631565b5b610c5588828901610acf565b925050608086013567ffffffffffffffff811115610c7657610c75610631565b5b610c8288828901610b92565b9150509295509295909350565b610c98816106a8565b82525050565b600082825260208201905092915050565b6000610cba826106c1565b610cc48185610c9e565b9350610cd48185602086016106dd565b610cdd81610707565b840191505092915050565b600060a082019050610cfd6000830188610874565b610d0a6020830187610c8f565b610d176040830186610c8f565b8181036060830152610d298185610caf565b9050610d386080830184610874565b9695505050505050565b7f4e487b7100000000000000000000000000000000000000000000000000000000600052603260045260246000fd5b7f4e487b7100000000000000000000000000000000000000000000000000000000600052602260045260246000fd5b60006002820490506001821680610db857607f821691505b602082108103610dcb57610dca610d71565b5b50919050565b600082825260208201905092915050565b7f4163636f756e747320616e642062616c616e636573206c656e677468206d697360008201527f6d61746368000000000000000000000000000000000000000000000000000000602082015250565b6000610e3e602583610dd1565b9150610e4982610de2565b604082019050919050565b60006020820190508181036000830152610e6d81610e31565b9050919050565b60008190508160005260206000209050919050565b60006020601f8301049050919050565b600082821b905092915050565b600060088302610ed67fffffffffffffffffffffffffffffffffffffffffffffffffffffffffffffffff82610e99565b610ee08683610e99565b95508019841693508086168417925050509392505050565b6000819050919050565b6000610f1d610f18610f1384610636565b610ef8565b610636565b9050919050565b6000819050919050565b610f3783610f02565b610f4b610f4382610f24565b848454610ea6565b825550505050565b600090565b610f60610f53565b610f6b818484610f2e565b505050565b5b81811015610f8f57610f84600082610f58565b600181019050610f71565b5050565b601f821115610fd457610fa581610e74565b610fae84610e89565b81016020851015610fbd578190505b610fd1610fc985610e89565b830182610f70565b50505b505050565b600082821c905092915050565b6000610ff760001984600802610fd9565b1980831691505092915050565b60006110108383610fe6565b9150826002028217905092915050565b611029826106c1565b67ffffffffffffffff8111156110425761104161090a565b5b61104c8254610da0565b611057828285610f93565b600060209050601f83116001811461108a5760008415611078578287015190505b6110828582611004565b8655506110ea565b601f19841661109886610e74565b60005b828110156110c05784890151825560018201915060208501945060208101905061109b565b868310156110dd57848901516110d9601f891682610fe6565b8355505b6001600288020188555050505b505050505050565b60006080820190506111076000830187610874565b6111146020830186610c8f565b81810360408301526111268185610caf565b90506111356060830184610874565b9594505050505056fea264697066735822122030a83742a7f42dc372fbbff103414685c8c01e04a23edffdc731a0d68d349e1664736f6c63430008180033",
  "linkReferences": {},
  "deployedLinkReferences": {}
}